:100000000C942A000C9447000C9447000C94470071
:100010000C94520D0C94DF0C0C9447000C94470088
:100020000C9447000C9447000C94FD090C948A0929
:100030000C9447000C9447000C9447000C94470024
:100040000C9447000C9447000C9447000C94470014
:100050000C94470011241FBECFE5D8E0DEBFCDBF12
:1000600011E0A8E6B1E001C01D92A839B107E1F79F
:1000700011E0A0E6B0E0EAE1F5E202C005900D92E1
:10008000A836B107D9F70E943A120C948B120C943F
:100090000000EF92FF920F931F937B018C0120E0F1
:1000A00030E040E05FE40E94F50388238CF0C80153
:1000B000B70120E030E040E05FE40E94C1010E940F
:1000C00025049B01AC01205030404040504806C000
:1000D000C801B7010E9425049B01AC01B901CA0106
:1000E0001F910F91FF90EF900895A0E0B0E0EBE733
:1000F000F0E00C945412DC012B01FA019C91923037
:1001000008F439C1EB018881823008F433C194309E
:1001100069F4843009F02FC111969C91119789815F
:10012000981709F428C1A0E6B0E025C1843009F48D
:1001300021C18230A9F4923009F01DC19A01AD01AC
:1001400088E0EA010990AE01E90109929E0181501F
:10015000C1F7E201898111969C918923818308C1AD
:10016000923009F407C112962D903C901397EB0141
:100170008A819B811496AD90BD90CD90DC901797AD
:10018000EC80FD800E811F819101281B390BB90184
:1001900037FF04C066277727621B730B6032710537
:1001A0000CF061C0121613066CF537014801062EDB
:1001B00004C096948794779467940A94D2F721E0C8
:1001C00030E040E050E004C0220F331F441F551FB1
:1001D0006A95D2F721503040404050402E213F21B7
:1001E00040235123211531054105510521F021E01E
:1001F00030E040E050E079018A01E628F72808293C
:1002000019293CC0232BD1F1260E371E350146019A
:10021000062E04C096948794779467940A94D2F734
:1002200021E030E040E050E004C0220F331F441FC3
:10023000551F6A95D2F721503040404050402A2146
:100240003B214C215D21211531054105510521F04E
:1002500021E030E040E050E059016A01A628B728CB
:10026000C828D9280BC0821593052CF01C01AA249C
:10027000BB24650103C0EE24FF24870111969C91E5
:10028000D20111968C91981709F445C0992339F041
:10029000A80197012A193B094C095D0906C0A6016E
:1002A00095012E193F09400B510B57FD08C01182D3
:1002B0003382228224833583468357831DC081E0A5
:1002C00081833382228288279927DC01821B930B4A
:1002D000A40BB50B84839583A683B7830DC0220F2F
:1002E000331F441F551F24833583468357838281E0
:1002F000938101979383828324813581468157813D
:10030000DA01C9010197A109B1098F5F9F4FAF4F72
:10031000BF4328F30BC0918333822282EA0CFB1C7B
:100320000C1D1D1DE482F5820683178383E0808304
:10033000248135814681578157FF1AC0C901AA27F8
:1003400097FDA095BA2F81709070A070B0705695EF
:10035000479537952795822B932BA42BB52B848318
:100360009583A683B7838281938101969383828349
:10037000DF0101C0D201CD01CDB7DEB7E2E10C94BF
:100380007012A0E2B0E0E7ECF1E00C946012698337
:100390007A838B839C832D833E834F835887E9E048
:1003A000EE2EF12CEC0EFD1ECE010196B7010E943F
:1003B00016068E010F5E1F4FCE010596B8010E94F2
:1003C00016068A8991E089278A8BC701B801AE0198
:1003D000475E5F4F0E9475000E944105A096E6E0CF
:1003E0000C947C12A0E2B0E0E8EFF1E00C94601213
:1003F00069837A838B839C832D833E834F835887C5
:10040000F9E0EF2EF12CEC0EFD1ECE010196B701A6
:100410000E9416068E010F5E1F4FCE010596B80191
:100420000E941606C701B801AE01475E5F4F0E94E9
:1004300075000E944105A096E6E00C947C12A0E2B3
:10044000B0E0E5E2F2E00C94541269837A838B8386
:100450009C832D833E834F835887CE010196BE0136
:10046000675F7F4F0E941606CE010596BE016F5E44
:100470007F4F0E9416069985923088F089898230D4
:10048000C8F0943019F4823051F404C0843029F457
:10049000923081F480E690E0C6C0923049F420E0CA
:1004A0009A858A89981321E02A87CE010996BBC0D4
:1004B000823049F420E09A858A89981321E02A8BBA
:1004C000CE014196B0C02D843E844F8458886D88FB
:1004D0007E888F88988CEE24FF248701AA24BB2471
:1004E000650140E050E060E070E0E0E0F0E0C10174
:1004F00081709070892BE9F0E60CF71C081D191D1E
:100500009A01AB012A0D3B1D4C1D5D1D80E090E062
:10051000A0E0B0E0E614F7040805190520F481E036
:1005200090E0A0E0B0E0BA01A901480F591F6A1F8E
:100530007B1FAA0CBB1CCC1CDD1C97FE08C081E0F5
:1005400090E0A0E0B0E0A82AB92ACA2ADB2A3196B6
:10055000E032F10549F0660C771C881C991C569412
:10056000479437942794C3CFFA85EA892B893C892D
:100570008B859C85280F391F2E5F3F4F17C0CA01FE
:1005800081709070892B61F016950795F794E79428
:1005900080E090E0A0E0B0E8E82AF92A0A2B1B2BC3
:1005A00076956795579547952F5F3F4F77FDE7CF36
:1005B0000CC0440F551F661F771F17FD4160EE0CDE
:1005C000FF1C001F111F21503040403090E05907A0
:1005D00090E0690790E4790760F32B8F3C8FDB0193
:1005E000CA018F779070A070B07080349105A1051A
:1005F000B10561F447FD0AC0E114F10401051105DC
:1006000029F0405C5F4F6F4F7F4F40781A8EFE1786
:1006100011F081E08A8F4D8F5E8F6F8F78A383E01A
:10062000898FCE0149960E944105A096E2E10C9483
:100630007012A8E1B0E0EFE1F3E00C945C12698382
:100640007A838B839C832D833E834F835887B9E0C5
:10065000EB2EF12CEC0EFD1ECE010196B7010E948F
:1006600016068E010F5E1F4FCE010596B8010E943F
:1006700016062985223008F47EC03989323010F4FC
:10068000B8017CC08A859A8989278A87243011F02D
:10069000223031F4231709F06EC060E670E06EC0BE
:1006A000343039F41D861E861F86188A1C861B86E8
:1006B00004C0323021F484E08987B7015FC02B8504
:1006C0003C858B899C89281B390B3C872B87ED84C3
:1006D000FE840F851889AD88BE88CF88D88CEA142F
:1006E000FB040C051D0540F4EE0CFF1C001F111F40
:1006F000215030403C872B8720E030E040E050E044
:1007000080E090E0A0E0B0E460E070E0EA14FB0478
:100710000C051D0540F0282B392B4A2B5B2BEA18C2
:10072000FB080C091D09B695A79597958795EE0CC2
:10073000FF1C001F111F6F5F7F4F6F31710531F775
:10074000DA01C9018F779070A070B0708034910584
:10075000A105B10561F427FD0AC0E114F10401050A
:10076000110529F0205C3F4F4F4F5F4F20782D87B8
:100770003E874F87588BBE01675F7F4FCB010E943A
:1007800041056896EAE00C947812A8E1B0E0EBEC41
:10079000F3E00C94601269837A838B839C832D83AE
:1007A0003E834F83588789E0E82EF12CEC0EFD1E26
:1007B000CE010196B7010E9416068E010F5E1F4FF3
:1007C000CE010596B8010E9416068985823040F058
:1007D0008989823028F0C701B8010E948E0601C0C5
:1007E00081E06896E6E00C947C12A8E1B0E0EBEFC3
:1007F000F3E00C94601269837A838B839C832D834E
:100800003E834F83588789E0E82EF12CEC0EFD1EC5
:10081000CE010196B7010E9416068E010F5E1F4F92
:10082000CE010596B8010E9416068985823040F0F7
:100830008989823028F0C701B8010E948E0601C064
:100840008FEF6896E6E00C947C12ACE0B0E0EBE24F
:10085000F4E00C94641269837A838B839C83CE01C9
:100860000196BE016B5F7F4F0E9416068D8182301C
:1008700061F1823050F1843021F48E81882351F16E
:100880002EC02F81388537FD20C06E812F31310574
:100890001CF06623F9F023C08EE190E0821B930BDD
:1008A00029853A854B855C8504C0569547953795D3
:1008B00027958A95D2F76623B1F0509540953095EB
:1008C00021953F4F4F4F5F4F0EC020E030E040E09A
:1008D00050E009C02FEF3FEF4FEF5FE704C020E08B
:1008E00030E040E050E8B901CA012C96E2E00C94F7
:1008F0008012A8E0B0E0EFE7F4E00C945C127B011A
:100900008C01611571058105910519F482E08983D7
:1009100060C083E089838EE1C82ED12CDC82CB823B
:10092000ED82FE820F831887C801B7010E94F2048E
:10093000FC013197F7FF3BC0222733272E1B3F0BCB
:1009400057016801022E04C0D694C794B794A794A7
:100950000A94D2F740E050E060E070E081E090E07F
:10096000A0E0B0E004C0880F991FAA1FBB1F2A9502
:10097000D2F70197A109B1098E219F21A023B123AC
:100980000097A105B10521F041E050E060E070E082
:100990004A295B296C297D294D835E836F83788783
:1009A0008EE190E08E1B9F0B9C838B8312C030974F
:1009B00081F00E2E04C0EE0CFF1C001F111F0A94C4
:1009C000D2F7ED82FE820F831887CE1ADF0ADC820F
:1009D000CB821A82CE0101960E9441052896EAE058
:1009E0000C947812EF92FF920F931F937B018C016E
:1009F00080E0E81680E0F80681E0080780E018074C
:100A000088F48FEFE816F1040105110531F028F0A4
:100A100088E090E0A0E0B0E017C080E090E0A0E0C7
:100A2000B0E012C080E0E81680E0F80680E0080739
:100A300081E0180728F088E190E0A0E0B0E004C071
:100A400080E190E0A0E0B0E020E230E040E050E063
:100A5000281B390B4A0B5B0B04C016950795F794BE
:100A6000E7948A95D2F7F701E859FF4F8081281B58
:100A7000310941095109C9011F910F91FF90EF9070
:100A80000895DF92EF92FF920F931F93FC01E48091
:100A9000F58006811781D1808081823048F480E022
:100AA00090E0A0E1B0E0E82AF92A0A2B1B2BA5C0B0
:100AB000843009F49FC0823021F4EE24FF248701A2
:100AC00005C0E114F1040105110519F4E0E0F0E0BE
:100AD00096C0628173819FEF623879070CF05BC02A
:100AE00022E83FEF261B370B2A3131052CF020E09E
:100AF00030E040E050E02AC0B801A701022E04C057
:100B000076956795579547950A94D2F781E090E0DE
:100B1000A0E0B0E004C0880F991FAA1FBB1F2A9550
:100B2000D2F70197A109B1098E219F21A023B123FA
:100B30000097A105B10521F081E090E0A0E0B0E0D0
:100B40009A01AB01282B392B4A2B5B2BDA01C90107
:100B50008F779070A070B07080349105A105B105B9
:100B600039F427FF09C0205C3F4F4F4F5F4F04C04F
:100B7000215C3F4F4F4F5F4FE0E0F0E02030A0E0BE
:100B80003A07A0E04A07A0E45A0710F0E1E0F0E0DD
:100B900079018A0127C06038710564F5FB01E158CD
:100BA000FF4FD801C7018F779070A070B07080346C
:100BB0009105A105B10539F4E7FE0DC080E490E090
:100BC000A0E0B0E004C08FE390E0A0E0B0E0E80E69
:100BD000F91E0A1F1B1F17FF05C016950795F794EE
:100BE000E794319687E016950795F794E7948A95F0
:100BF000D1F705C0EE24FF248701EFEFF0E06E2F60
:100C0000679566276795902F9F77D794DD24D794B3
:100C10008E2F8695492F462B582F5D29B701CA0183
:100C20001F910F91FF90EF90DF900895FC01DB0181
:100C3000408151812281622F6F7770E0221F22272D
:100C4000221F9381892F880F822B282F30E0991F34
:100C50009927991F11969C93119721153105A9F594
:100C6000411551056105710511F482E037C082E834
:100C70009FEF13969C938E9312979A01AB0167E0B6
:100C8000220F331F441F551F6A95D1F783E08C93C1
:100C90000DC0220F331F441F551F12968D919C913A
:100CA0001397019713969C938E931297203080E0B0
:100CB000380780E0480780E4580758F314962D93CE
:100CC0003D934D935C93179708952F3F310579F429
:100CD000411551056105710519F484E08C9308955F
:100CE00064FF03C081E08C9312C01C9210C02F5788
:100CF000304013963C932E93129783E08C9387E0B9
:100D0000440F551F661F771F8A95D1F7706414969C
:100D10004D935D936D937C93179708951F93DC011A
:100D2000FB019C91923008F447C08081823008F426
:100D300043C0943051F411961C91843099F581810F
:100D4000682F70E0611B71093FC0843021F0923040
:100D500031F48230B9F18181882389F12DC0119657
:100D60001C9111978230F1F081811817D9F41296F5
:100D70002D913C911397828193818217930794F070
:100D800028173907BCF014968D919D910D90BC9158
:100D9000A02D2481358146815781281739074A07BC
:100DA0005B0718F4112341F00AC082179307A407C8
:100DB000B50740F4112319F061E070E005C06FEF52
:100DC0007FEF02C060E070E0CB011F910895DF93D8
:100DD000CF930F92CDB7DEB781E08983A3E5B0E072
:100DE000E3E5F0E08081877F8C93A3E5B0E0E3E565
:100DF000F0E080818F7B8C93A3E5B0E0E3E5F0E049
:100E000080818F7E8C93A3E5B0E0E3E5F0E0808104
:100E10008F7D8C93A3E5B0E0E3E5F0E08081856011
:100E20008C9389810F90CF91DF910895DF93CF93B9
:100E300000D000D00F92CDB7DEB76A837B838C835E
:100E40009D8381E08983198289810F900F900F9093
:100E50000F900F90CF91DF910895DF93CF930F9272
:100E6000CDB7DEB781E08983A9E5B0E0E9E5F0E040
:100E7000808182608C93198289810F90CF91DF915C
:100E80000895DF93CF930F92CDB7DEB781E08983CA
:100E9000A9E5B0E0E9E5F0E080818D7F8C931982CF
:100EA00089810F90CF91DF910895DF93CF9300D088
:100EB000CDB7DEB78A8381E08983ECE5F0E08A81F3
:100EC0008083198289810F900F90CF91DF910895CF
:100ED000DF93CF9300D0CDB7DEB78A8381E08983DB
:100EE000E2E5F0E08A818083198289810F900F907A
:100EF000CF91DF910895DF93CF93CDB7DEB766979B
:100F00000FB6F894DEBF0FBECDBF6F87788B898B8D
:100F10009A8B5C8B4B8B3E8B2D8B81E08E87A9E56A
:100F2000B0E0E9E5F0E080818E7F8C938FE692E17E
:100F3000A3E8B3E48A879B87AC87BD876F857889F0
:100F400089899A890E947904DC01CB01BC01CD0119
:100F50002A853B854C855D850E941903DC01CB0108
:100F60008E839F83A887B9876E817F8188859985C5
:100F70000E944900DC01CB01BC01CD010E94790433
:100F80009B01AC016E817F81888599850E94C1019A
:100F9000DC01CB01BC01CD0120E030E040E050E0BD
:100FA0000E94C503882309F454C06E817F8188851F
:100FB00099850E944900DC01CB010196A11DB11D5C
:100FC0008A839B83AC83BD836E817F81888599856D
:100FD0000E944900DC01CB01BC01CD010E947904D3
:100FE0009B01AC016E817F81888599850E94C1013A
:100FF000DC01CB018E839F83A887B9876E817F81B7
:101000008885998520E030E040E853EC0E941F027B
:10101000DC01CB01BC01CD0120E030E040E853E42D
:101020000E94F201DC01CB01BC01CD010E9449000C
:10103000DC01CB0189838981882F90E0A0E0B0E0BA
:101040008093740190937501A0937601B09377011A
:101050000CC06E817F81888599850E944900DC01E2
:10106000CB018A839B83AC83BD838A819B81AC81C6
:10107000BD818093780190937901A0937A01B09318
:101080007B018B899C89009769F08B899C8990935F
:101090006901809368018D899E8990936F01809387
:1010A0006E0102C082E08E87A9E5B0E0E9E5F0E0DC
:1010B000808181608C938E8566960FB6F894DEBF32
:1010C0000FBECDBFCF91DF910895DF93CF93CDB702
:1010D000DEB766970FB6F894DEBF0FBECDBF6B8B41
:1010E0007C8B8D8B9E8B81E08A8BA9E5B0E0E9E556
:1010F000F0E080818E7F8C938FE692E1A3E8B3E4E9
:101100008E879F87A88BB98B6B897C898D899E89F7
:101110000E947904DC01CB01BC01CD012E853F8505
:10112000488959890E941903DC01CB018A879B8772
:10113000AC87BD876A857B858C859D850E9449002B
:10114000DC01CB01BC01CD010E9479049B01AC0103
:101150006A857B858C859D850E94C101DC01CB0160
:10116000BC01CD0120E030E040E050E00E94C5032A
:10117000882309F46FC06A857B858C859D850E94D4
:101180004900DC01CB010196A11DB11D8E839F8317
:10119000A887B9876A857B858C859D850E944900D3
:1011A000DC01CB01BC01CD010E9479049B01AC01A3
:1011B0006A857B858C859D850E94C101DC01CB0100
:1011C0008A879B87AC87BD876A857B858C859D8553
:1011D00020E030E040E853EC0E941F02DC01CB012C
:1011E000BC01CD0120E030E040E853E40E94F20170
:1011F000DC01CB01BC01CD010E944900DC01CB0127
:101200008D83E2E5F0E08D8180831BC0E8E5F0E0AE
:101210008081882F90E0817090700097B9F3A8E5E5
:10122000B0E0E8E5F0E0808181608C938E819F8161
:10123000A885B9850197A109B1098E839F83A887E5
:10124000B9878E819F81A885B9850097A105B105D1
:10125000E9F630C06A857B858C859D850E944900B2
:10126000DC01CB0189839A83AB83BC831BC0E8E597
:10127000F0E08081882F90E0817090700097B9F342
:10128000A8E5B0E0E8E5F0E0808181608C93898199
:101290009A81AB81BC810197A109B10989839A83A5
:1012A000AB83BC8389819A81AB81BC810097A10506
:1012B000B105E9F68A8966960FB6F894DEBF0FBECF
:1012C000CDBFCF91DF910895DF93CF9300D000D0B1
:1012D0000F92CDB7DEB79B838A837D836C8381E0D9
:1012E00089838A819B81009761F08A819B81909399
:1012F0006B0180936A018C819D8190937101809331
:10130000700189810F900F900F900F900F90CF91E7
:10131000DF9108951F920F920FB60F9211242F9311
:101320003F934F935F936F937F938F939F93AF936D
:10133000BF93EF93FF93DF93CF93CDB7DEB7809149
:10134000680190916901009709F444C080917C0183
:1013500090917D01A0917E01B0917F010196A11D28
:10136000B11D80937C0190937D01A0937E01B09389
:101370007F0120917C0130917D0140917E0150914F
:101380007F018091780190917901A0917A01B091CB
:101390007B01281739074A075B07E1F4E2E5F0E033
:1013A0008091740190917501A0917601B0917701BF
:1013B0008083E0916801F091690180916E019091C4
:1013C0006F01099510927C0110927D0110927E01AF
:1013D00010927F01CF91DF91FF91EF91BF91AF917B
:1013E0009F918F917F916F915F914F913F912F913D
:1013F0000F900FBE0F901F9018951F920F920FB66F
:101400000F9211242F933F934F935F936F937F938A
:101410008F939F93AF93BF93EF93FF93DF93CF93FC
:10142000CDB7DEB780916A0190916B01009749F0CA
:10143000E0916801F09169018091700190917101D2
:101440000995CF91DF91FF91EF91BF91AF919F915E
:101450008F917F916F915F914F913F912F910F905D
:101460000FBE0F901F901895DF93CF930F92CDB7BB
:10147000DEB781E08983A5E4B0E0E5E4F0E08081B7
:10148000877F8C93A5E4B0E0E5E4F0E080818F7B7A
:101490008C93A5E4B0E0E5E4F0E080818F7E8C934E
:1014A000A5E4B0E0E5E4F0E080818F7D8C93A5E4D5
:1014B000B0E0E5E4F0E0808185608C9389810F9055
:1014C000CF91DF910895DF93CF9300D000D00F929A
:1014D000CDB7DEB76A837B838C839D8381E089836C
:1014E000198289810F900F900F900F900F90CF91DC
:1014F000DF910895DF93CF930F92CDB7DEB781E0F0
:101500008983A9E5B0E0E9E5F0E0808180688C930B
:10151000198289810F90CF91DF910895DF93CF9346
:101520000F92CDB7DEB781E08983A9E5B0E0E9E5A8
:10153000F0E080818F778C93198289810F90CF9111
:10154000DF910895DF93CF9300D0CDB7DEB78A83C4
:1015500081E08983E3E4F0E08A81808319828981D4
:101560000F900F90CF91DF910895DF93CF9300D02C
:10157000CDB7DEB78A8381E08983E4E4F0E08A8135
:101580008083198289810F900F90CF91DF91089508
:10159000DF93CF93CDB7DEB766970FB6F894DEBF73
:1015A0000FBECDBF6F87788B898B9A8B5C8B4B8BF3
:1015B0003E8B2D8B81E08E87A9E5B0E0E9E5F0E078
:1015C00080818F778C938FE692E1A3E8B3E48A87DA
:1015D0009B87AC87BD876F85788989899A890E94A6
:1015E0007904DC01CB01BC01CD012A853B854C850A
:1015F0005D850E941903DC01CB018E839F83A88740
:10160000B9876E817F81888599850E944900DC01B8
:10161000CB01BC01CD010E9479049B01AC016E811C
:101620007F81888599850E94C101DC01CB01BC01C5
:10163000CD0120E030E040E050E00E94C503882367
:1016400009F454C06E817F81888599850E94490084
:10165000DC01CB010196A11DB11D8A839B83AC8364
:10166000BD836E817F81888599850E944900DC0158
:10167000CB01BC01CD010E9479049B01AC016E81BC
:101680007F81888599850E94C101DC01CB018E8311
:101690009F83A887B9876E817F818885998520E09F
:1016A00030E040E853EC0E941F02DC01CB01BC019A
:1016B000CD0120E030E040E853E40E94F201DC017B
:1016C000CB01BC01CD010E944900DC01CB01898323
:1016D0008981882F90E0A0E0B0E080938C01909306
:1016E0008D01A0938E01B0938F010CC06E817F811C
:1016F000888599850E944900DC01CB018A839B8300
:10170000AC83BD838A819B81AC81BD818093900134
:1017100090939101A0939201B09393018B899C893E
:10172000009769F08B899C89909381018093800157
:101730008D899E89909387018093860102C082E003
:101740008E87A9E5B0E0E9E5F0E0808180688C93C0
:101750008E8566960FB6F894DEBF0FBECDBFCF91D3
:10176000DF910895DF93CF93CDB7DEB766970FB6BD
:10177000F894DEBF0FBECDBF6B8B7C8B8D8B9E8BA9
:1017800081E08A8BA9E5B0E0E9E5F0E080818F7720
:101790008C938FE692E1A3E8B3E48E879F87A88BB2
:1017A000B98B6B897C898D899E890E947904DC01C3
:1017B000CB01BC01CD012E853F85488959890E9406
:1017C0001903DC01CB018A879B87AC87BD876A85BB
:1017D0007B858C859D850E944900DC01CB01BC0185
:1017E000CD010E9479049B01AC016A857B858C85C3
:1017F0009D850E94C101DC01CB01BC01CD0120E02F
:1018000030E040E050E00E94C503882309F473C033
:101810006A857B858C859D850E944900DC01CB0112
:101820000196A11DB11D8E839F83A887B9876A8504
:101830007B858C859D850E944900DC01CB01BC0124
:10184000CD010E9479049B01AC016A857B858C8562
:101850009D850E94C101DC01CB018A879B87AC87F3
:10186000BD876A857B858C859D8520E030E040E8DA
:1018700053EC0E941F02DC01CB01BC01CD0120E032
:1018800030E040E853E40E94F201DC01CB01BC01EE
:10189000CD010E944900DC01CB018D83E4E4F0E03E
:1018A0008D8180831FC0E8E5F0E080818295869578
:1018B00086958370882F90E081709070009799F3DF
:1018C000A8E5B0E0E8E5F0E0808180648C938E814B
:1018D0009F81A885B9850197A109B1098E839F834E
:1018E000A887B9878E819F81A885B9850097A105B2
:1018F000B105C9F634C06A857B858C859D850E94BB
:101900004900DC01CB0189839A83AB83BC831FC070
:10191000E8E5F0E080818295869586958370882F32
:1019200090E081709070009799F3A8E5B0E0E8E549
:10193000F0E0808180648C9389819A81AB81BC8145
:101940000197A109B10989839A83AB83BC838981FB
:101950009A81AB81BC810097A105B105C9F68A893E
:1019600066960FB6F894DEBF0FBECDBFCF91DF9164
:101970000895DF93CF9300D000D00F92CDB7DEB79C
:101980009B838A837D836C8381E089838A819B81A9
:10199000009761F08A819B819093830180938201FB
:1019A0008C819D81909389018093880189810F901A
:1019B0000F900F900F900F90CF91DF9108951F928D
:1019C0000F920FB60F9211242F933F934F935F9373
:1019D0006F937F938F939F93AF93BF93EF93FF93F7
:1019E000DF93CF93CDB7DEB78091800190918101D5
:1019F000009709F444C08091940190919501A091C1
:101A00009601B09197010196A11DB11D809394019B
:101A100090939501A0939601B09397012091940122
:101A200030919501409196015091970180917801F4
:101A300090917901A0917A01B0917B012817390723
:101A40004A075B07E1F4E4E4F0E080918C019091B7
:101A50008D01A0918E01B0918F018083E091800172
:101A6000F0918101809186019091870109951092F2
:101A70009401109295011092960110929701CF91C6
:101A8000DF91FF91EF91BF91AF919F918F917F91E6
:101A90006F915F914F913F912F910F900FBE0F90DB
:101AA0001F9018951F920F920FB60F9211242F932B
:101AB0003F934F935F936F937F938F939F93AF93D6
:101AC000BF93EF93FF93DF93CF93CDB7DEB78091B2
:101AD000820190918301009749F0E0918001F0919B
:101AE000810180917001909171010995CF91DF91F1
:101AF000FF91EF91BF91AF919F918F917F916F91E6
:101B00005F914F913F912F910F900FBE0F901F90BB
:101B10001895DF93CF930F92CDB7DEB781E089831D
:101B2000AFE5B0E0EFE5F0E0808180688C938981DB
:101B30000F90CF91DF910895DF93CF930F92CDB7A0
:101B4000DEB781E08983AFE5B0E0EFE5F0E08081CA
:101B50008F778C9389810F90CF91DF910895DF93D8
:101B6000CF930F92CDB7DEB781E08983EAE3F0E04F
:101B70008FEF8083E7E3F0E086EB8083E4E3F0E03F
:101B800086EB8083E1E3F0E086EB8083EBE3F0E03B
:101B90001082E8E3F0E08AE38083E5E3F0E08AE3A3
:101BA0008083E2E3F0E08AE38083198289810F90E9
:101BB000CF91DF910895DF93CF9300D000D00F92A3
:101BC000CDB7DEB78A836B8381E089838A818430D5
:101BD000A0F58A81282F30E03D832C838C819D8164
:101BE00081309105D1F02C813D81223031052CF4DA
:101BF0008C819D81009761F01EC02C813D81223037
:101C0000310581F08C819D818330910581F013C075
:101C1000EAE3F0E08B8180830EC0E7E3F0E08B81A4
:101C2000808309C0E4E3F0E08B81808304C0E1E3BA
:101C3000F0E08B818083198202C083E089838981EF
:101C40000F900F900F900F900F90CF91DF9108950C
:101C5000DF93CF9300D000D00F92CDB7DEB78A8349
:101C60006B8381E089838A818430A0F58A81282F63
:101C700030E03D832C838C819D8181309105D1F0B2
:101C80002C813D81223031052CF48C819D8100977F
:101C900061F01EC02C813D812230310581F08C81A4
:101CA0009D818330910581F013C0EBE3F0E08B81DF
:101CB00080830EC0E8E3F0E08B81808309C0E5E318
:101CC000F0E08B81808304C0E2E3F0E08B818083CD
:101CD000198202C083E0898389810F900F900F9051
:101CE0000F900F90CF91DF910895DF93CF9300D0A5
:101CF00000D0CDB7DEB78A8381E089838A818430C2
:101D000008F040C08A81282F30E03C832B838B81F0
:101D10009C8181309105E9F02B813C812230310595
:101D20002CF48B819C81009761F02AC02B813C812F
:101D300022303105B1F08B819C8183309105C9F04F
:101D40001FC0ABE3B0E0EBE3F0E0808180958C93C3
:101D500017C0A8E3B0E0E8E3F0E0808180958C93C1
:101D60000FC0A5E3B0E0E5E3F0E0808180958C93BF
:101D700007C0A2E3B0E0E2E3F0E0808180958C93BD
:101D8000198202C083E0898389810F900F900F90A0
:101D90000F90CF91DF910895DF93CF9300D000D0C3
:101DA00000D0CDB7DEB78A837C836B8381E08983E3
:101DB0008B819C81009709F442C08A818430E0F5D0
:101DC0008A81282F30E03E832D838D819E81813052
:101DD0009105E1F02D813E81223031052CF48D8179
:101DE0009E81009761F026C02D813E812230310511
:101DF000A1F08D819E8183309105B1F01BC0E9E394
:101E0000F0E08081EB81FC81808314C0E6E3F0E0A8
:101E10008081EB81FC8180830DC0E3E3F0E0808171
:101E2000EB81FC81808306C0E0E3F0E08081EB8100
:101E3000FC818083198205C083E0898302C082E02F
:101E40008983898126960FB6F894DEBF0FBECDBF79
:101E5000CF91DF910895DF93CF9300D000D000D0D1
:101E6000CDB7DEB78A836B834C8381E089838A8117
:101E7000843008F0D0C08B81883008F0CCC08C81D1
:101E8000823008F0C8C08A81282F30E03E832D833D
:101E90006D817E816130710509F441C08D819E8123
:101EA0008230910534F42D813E812115310571F088
:101EB000B0C06D817E816230710509F459C08D8199
:101EC0009E818330910509F47CC0A3C0AAE3B0E0F1
:101ED000EAE3F0E08081482F8B81282F30E081E019
:101EE00090E002C0880F991F2A95E2F7809584231D
:101EF0008C93AAE3B0E0EAE3F0E08081482F8C8184
:101F0000282F30E08B81882F90E0B90102C0660F46
:101F1000771F8A95E2F7CB01842B8C937AC0A7E3D5
:101F2000B0E0E7E3F0E08081482F8B81282F30E09C
:101F300081E090E002C0880F991F2A95E2F7809512
:101F400084238C93A7E3B0E0E7E3F0E08081482F9F
:101F50008C81282F30E08B81882F90E0B90102C05E
:101F6000660F771F8A95E2F7CB01842B8C9351C0C3
:101F7000A4E3B0E0E4E3F0E08081482F8B81282FD8
:101F800030E081E090E002C0880F991F2A95E2F7C7
:101F9000809584238C93A4E3B0E0E4E3F0E08081B7
:101FA000482F8C81282F30E08B81882F90E0B90159
:101FB00002C0660F771F8A95E2F7CB01842B8C93C2
:101FC00028C0A1E3B0E0E1E3F0E08081482F8B81FD
:101FD000282F30E081E090E002C0880F991F2A95F9
:101FE000E2F7809584238C93A1E3B0E0E1E3F0E095
:101FF0008081482F8C81282F30E08B81882F90E0C2
:10200000B90102C0660F771F8A95E2F7CB01842BD6
:102010008C93198202C083E08983898126960FB64A
:10202000F894DEBF0FBECDBFCF91DF910895DF934F
:10203000CF9300D000D000D0CDB7DEB78A836B83BA
:102040004C8381E089838A81843008F0D0C08B8101
:10205000883008F0CCC08C81823008F0C8C08A81FA
:10206000282F30E03E832D836D817E8161307105A4
:1020700009F441C08D819E818230910534F42D8117
:102080003E812115310571F0B0C06D817E816230D5
:10209000710509F459C08D819E818330910509F441
:1020A0007CC0A3C0ABE3B0E0EBE3F0E08081482F5D
:1020B0008B81282F30E081E090E002C0880F991FCB
:1020C0002A95E2F7809584238C93ABE3B0E0EBE3B1
:1020D000F0E08081482F8C81282F30E08B81882F81
:1020E00090E0B90102C0660F771F8A95E2F7CB0135
:1020F000842B8C937AC0A8E3B0E0E8E3F0E0808121
:10210000482F8B81282F30E081E090E002C0880FBB
:10211000991F2A95E2F7809584238C93A8E3B0E079
:10212000E8E3F0E08081482F8C81282F30E08B811C
:10213000882F90E0B90102C0660F771F8A95E2F7F9
:10214000CB01842B8C9351C0A5E3B0E0E5E3F0E034
:102150008081482F8B81282F30E081E090E002C001
:10216000880F991F2A95E2F7809584238C93A5E325
:10217000B0E0E5E3F0E08081482F8C81282F30E04B
:102180008B81882F90E0B90102C0660F771F8A9576
:10219000E2F7CB01842B8C9328C0A2E3B0E0E2E30A
:1021A000F0E08081482F8B81282F30E081E090E0A3
:1021B00002C0880F991F2A95E2F7809584238C939B
:1021C000A2E3B0E0E2E3F0E08081482F8C81282F89
:1021D00030E08B81882F90E0B90102C0660F771F35
:1021E0008A95E2F7CB01842B8C93198202C083E09D
:1021F0008983898126960FB6F894DEBF0FBECDBFC6
:10220000CF91DF910895DF93CF9300D000D00F924C
:10221000CDB7DEB78A836B8381E089838A8184307E
:1022200008F074C08B81883008F070C08A81282F34
:1022300030E03D832C838C819D818130910549F173
:102240002C813D81223031052CF48C819D810097B9
:1022500061F05AC02C813D812230310571F18C81B1
:102260009D8183309105E9F14FC0ABE3B0E0EBE332
:10227000F0E08081482F8B81282F30E081E090E0D2
:10228000022E02C0880F991F0A94E2F784278C93CC
:102290003BC0A8E3B0E0E8E3F0E08081482F8B8109
:1022A000282F30E081E090E0022E02C0880F991FB5
:1022B0000A94E2F784278C9327C0A5E3B0E0E5E316
:1022C000F0E08081482F8B81282F30E081E090E082
:1022D000022E02C0880F991F0A94E2F784278C937C
:1022E00013C0A2E3B0E0E2E3F0E08081482F8B81ED
:1022F000282F30E081E090E0022E02C0880F991F65
:102300000A94E2F784278C93198202C083E08983C0
:1023100089810F900F900F900F900F90CF91DF91C8
:102320000895DF93CF93CDB7DEB727970FB6F89414
:10233000DEBF0FBECDBF8A836B835D834C8381E09C
:1023400089838C819D81009709F47DC08A818430C6
:1023500008F076C08B81883008F072C08A81282FFF
:1023600030E03F832E834E815F814130510559F12A
:102370008E819F818230910534F42E813F81211519
:10238000310569F05BC04E815F814230510579F1C2
:102390008E819F818330910509F43DC04FC0E9E3F0
:1023A000F0E08081282F30E08B81882F90E0A90118
:1023B00002C0559547958A95E2F7CA018170EC8174
:1023C000FD8180833BC0E6E3F0E08081282F30E090
:1023D0008B81882F90E0A90102C0559547958A9579
:1023E000E2F7CA018170EC81FD81808327C0E3E3BD
:1023F000F0E08081282F30E08B81882F90E0A901C8
:1024000002C0559547958A95E2F7CA018170EC8123
:10241000FD81808313C0E0E3F0E08081282F30E06D
:102420008B81882F90E0A90102C0559547958A9528
:10243000E2F7CA018170EC81FD818083198205C0B9
:1024400083E0898302C082E08983898127960FB661
:10245000F894DEBF0FBECDBFCF91DF910895DF931B
:10246000CF93CDB7DEB780E062E00E940311CF9139
:10247000DF910895DF93CF93CDB7DEB783E067E0B8
:1024800041E00E942B0F0E94E7060E94340A0E943E
:10249000890D83E067E00E94031160ED77E080E042
:1024A00090E00E94B20BF5CF2F923F924F925F9235
:1024B0006F927F928F929F92AF92BF92CF92DF9254
:1024C000EF92FF920F931F93CF93DF93CDB7DEB7B9
:1024D000CA1BDB0B0FB6F894DEBF0FBECDBF09944D
:1024E0002A88398848885F846E847D848C849B84A4
:1024F000AA84B984C884DF80EE80FD800C811B81B2
:10250000AA81B981CE0FD11D0FB6F894DEBF0FBEE0
:0A251000CDBFED010895F894FFCF50
:10251A0000000000000000000001020203030303A0
:10252A000404040404040404050505050505050559
:10253A000505050505050505060606060606060639
:10254A000606060606060606060606060606060621
:10255A000606060606060606070707070707070709
:10256A0007070707070707070707070707070707F1
:10257A0007070707070707070707070707070707E1
:10258A0007070707070707070707070707070707D1
:10259A0007070707070707070808080808080808B9
:1025AA0008080808080808080808080808080808A1
:1025BA000808080808080808080808080808080891
:1025CA000808080808080808080808080808080881
:1025DA000808080808080808080808080808080871
:1025EA000808080808080808080808080808080861
:1025FA000808080808080808080808080808080851
:10260A000808080808080808080808080808080840
:08261A00080808080808080878
:00000001FF
