:100000000C942A000C9410030C9443030C94760374
:100010000C9447000C9447000C9447000C94470044
:100020000C9447000C9447000C9447000C94470034
:100030000C9447000C9447000C9447000C94470024
:100040000C9447000C9447000C9447000C94470014
:100050000C94470011241FBECFE5D8E0DEBFCDBF12
:1000600010E0A0E6B0E0E4EBF0E102C005900D92F4
:10007000A636B107D9F710E0A6E6B0E001C01D92A0
:10008000AC36B107E1F70E9429080C9458080C948B
:100090000000DF93CF930F92CDB7DEB781E0898365
:1000A000AFE5B0E0EFE5F0E0808180688C93898176
:1000B0000F90CF91DF910895DF93CF930F92CDB73B
:1000C000DEB781E08983AFE5B0E0EFE5F0E0808165
:1000D0008F778C9389810F90CF91DF910895DF9373
:1000E000CF93CDB7DEB72C970FB6F894DEBF0FBE17
:1000F000CDBF9C838B8381E08A838B819C81009719
:1001000009F409C11982198201C18981882F90E0FF
:100110009C01220F331F8B819C81FC01E20FF31F96
:100120008081813009F0EFC08981282F30E03C8741
:100130002B878B859C858130910509F45FC02B85C9
:100140003C852230310509F4ADC08B859C85009734
:1001500009F0D9C0ABE5B0E0EBE5F0E08081806468
:100160008C93A5E5B0E0E5E5F0E080818C7F8C9391
:100170008981882F90E09C01220F331F8B819C8105
:10018000FC01E20FF31F8181282F30E03A87298795
:1001900089859A8581309105F1F029853A8522304B
:1001A00031052CF489859A85009769F024C029854A
:1001B0003A852230310509F4A6C089859A858330B5
:1001C000910589F018C0A5E5B0E0E5E5F0E0808193
:1001D00082608C9398C0A5E5B0E0E5E5F0E0808111
:1001E00083608C9390C0A5E5B0E0E5E5F0E0808108
:1001F00081608C9388C083E08A8385C0ABE5B0E0E2
:10020000EBE5F0E0808180688C93A5E5B0E0E5E562
:10021000F0E08081837F8C938981882F90E09C011E
:10022000220F331F8B819C81FC01E20FF31F818120
:10023000282F30E038872F838F8198858130910572
:10024000F1F02F813885223031052CF48F8198858B
:10025000009769F024C02F8138852230310509F4D8
:1002600052C08F8198858330910589F018C0A5E52B
:10027000B0E0E5E5F0E0808188608C9344C0A5E5BE
:10028000B0E0E5E5F0E080818C608C933CC0A5E5B2
:10029000B0E0E5E5F0E0808184608C9334C083E0D9
:1002A0008A8331C0ABE5B0E0EBE5F0E080818062AD
:1002B0008C93A4E5B0E0E4E5F0E080818F7B8C9343
:1002C0008981882F90E09C01220F331F8B819C81B4
:1002D000FC01E20FF31F8181282F30E03E832D8344
:1002E0008D819E81009779F02D813E8121303105ED
:1002F00041F4A4E5B0E0E4E5F0E0808180648C9313
:1003000002C083E08A8389818F5F898389818330FA
:1003100008F4FBCE02C082E08A838A812C960FB655
:10032000F894DEBF0FBECDBFCF91DF910895DF936C
:10033000CF93CDB7DEB72B970FB6F894DEBF0FBEC5
:10034000CDBF8A836B8381E089838A81282F30E047
:100350003B872A878A859B858130910509F44DC0AA
:100360002A853B852230310509F489C08A859B8521
:10037000009709F0A3C0A5E5B0E0E5E5F0E08081D5
:100380008C7F8C938B81282F30E039872887888554
:10039000998581309105F1F0288539852230310524
:1003A0002CF488859985009769F024C028853985C3
:1003B0002230310509F482C0888599858330910502
:1003C00089F018C0A5E5B0E0E5E5F0E08081826045
:1003D0008C9374C0A5E5B0E0E5E5F0E08081836032
:1003E0008C936CC0A5E5B0E0E5E5F0E0808181602C
:1003F0008C9364C083E0898361C0A5E5B0E0E5E546
:10040000F0E08081837F8C938B81282F30E03F83C5
:100410002E838E819F8181309105F1F02E813F8165
:10042000223031052CF48E819F81009769F024C021
:100430002E813F812230310509F440C08E819F8199
:100440008330910589F018C0A5E5B0E0E5E5F0E05E
:10045000808188608C9332C0A5E5B0E0E5E5F0E0EE
:1004600080818C608C932AC0A5E5B0E0E5E5F0E0E2
:10047000808184608C9322C083E089831FC0A4E5BF
:10048000B0E0E4E5F0E080818F7B8C938B81282FB6
:1004900030E03D832C838C819D81009779F02C8105
:1004A0003D812130310541F4A4E5B0E0E4E5F0E020
:1004B000808180648C9302C083E0898389812B963C
:1004C0000FB6F894DEBF0FBECDBFCF91DF91089578
:1004D000DF93CF9300D000D0CDB7DEB78A8381E021
:1004E00089838A81282F30E03C832B838B819C81F8
:1004F0008130910589F02B813C8122303105A1F0BA
:100500008B819C810097C1F4ABE5B0E0EBE5F0E0B6
:10051000808180648C9312C0ABE5B0E0EBE5F0E045
:10052000808180688C930AC0ABE5B0E0EBE5F0E039
:10053000808180628C9302C083E0898389810F90DF
:100540000F900F900F90CF91DF910895DF93CF938D
:1005500000D000D0CDB7DEB78A8381E089838A815D
:10056000282F30E03C832B838B819C818130910547
:1005700089F02B813C8122303105A1F08B819C8157
:100580000097C1F4ABE5B0E0EBE5F0E080818F7B54
:100590008C9312C0ABE5B0E0EBE5F0E080818F77A3
:1005A0008C930AC0ABE5B0E0EBE5F0E080818F7D95
:1005B0008C9302C083E0898389810F900F900F9004
:1005C0000F90CF91DF910895DF93CF9300D000D0AB
:1005D000CDB7DEB79B838A836C8381E089838A8170
:1005E0009B81009799F08C81833068F48C81882FEF
:1005F00090E02A813B81880F991FFC01EA59FF4F47
:100600003183208305C083E0898302C082E089832F
:1006100089810F900F900F900F90CF91DF910895E7
:100620001F920F920FB60F9211242F933F934F9367
:100630005F936F937F938F939F93AF93BF93EF934A
:10064000FF93DF93CF93CDB7DEB780916600909193
:100650006700009729F0E0916600F0916700099526
:10066000CF91DF91FF91EF91BF91AF919F918F91CA
:100670007F916F915F914F913F912F910F900FBE9E
:100680000F901F9018951F920F920FB60F92112482
:100690002F933F934F935F936F937F938F939F938A
:1006A000AF93BF93EF93FF93DF93CF93CDB7DEB7B5
:1006B0008091680090916900009729F0E0916800AE
:1006C000F09169000995CF91DF91FF91EF91BF9172
:1006D000AF919F918F917F916F915F914F913F91DA
:1006E0002F910F900FBE0F901F9018951F920F9291
:1006F0000FB60F9211242F933F934F935F936F93F5
:100700007F938F939F93AF93BF93EF93FF93DF9369
:10071000CF93CDB7DEB780916A0090916B000097C0
:1007200029F0E0916A00F0916B000995CF91DF917B
:10073000FF91EF91BF91AF919F918F917F916F91B9
:100740005F914F913F912F910F900FBE0F901F908F
:100750001895DF93CF930F92CDB7DEB781E08983F1
:10076000EAE3F0E08FEF8083E7E3F0E086EB80835D
:10077000E4E3F0E086EB8083E1E3F0E086EB808366
:10078000EBE3F0E01082E8E3F0E08AE38083E5E366
:10079000F0E08AE38083E2E3F0E08AE38083198279
:1007A00089810F90CF91DF910895DF93CF9300D08F
:1007B00000D00F92CDB7DEB78A836B8381E0898347
:1007C0008A818430A0F58A81282F30E03D832C83F4
:1007D0008C819D8181309105D1F02C813D81223029
:1007E00031052CF48C819D81009761F01EC02C8115
:1007F0003D812230310581F08C819D8183309105CE
:1008000081F013C0EAE3F0E08B8180830EC0E7E360
:10081000F0E08B81808309C0E4E3F0E08B8180838A
:1008200004C0E1E3F0E08B818083198202C083E0A1
:10083000898389810F900F900F900F900F90CF9127
:10084000DF910895DF93CF9300D000D00F92CDB702
:10085000DEB78A836B8381E089838A818430A0F547
:100860008A81282F30E03D832C838C819D818130CB
:100870009105D1F02C813D81223031052CF48C8101
:100880009D81009761F01EC02C813D812230310591
:1008900081F08C819D818330910581F013C0EBE361
:1008A000F0E08B8180830EC0E8E3F0E08B818083F1
:1008B00009C0E5E3F0E08B81808304C0E2E3F0E06F
:1008C0008B818083198202C083E0898389810F90A4
:1008D0000F900F900F900F90CF91DF910895DF93BD
:1008E000CF9300D000D0CDB7DEB78A8381E0898373
:1008F0008A81843008F040C08A81282F30E03C8310
:100900002B838B819C8181309105E9F02B813C8187
:10091000223031052CF48B819C81009761F02AC034
:100920002B813C8122303105B1F08B819C81833059
:100930009105C9F01FC0ABE3B0E0EBE3F0E08081CC
:1009400080958C9317C0A8E3B0E0E8E3F0E08081E5
:1009500080958C930FC0A5E3B0E0E5E3F0E08081E3
:1009600080958C9307C0A2E3B0E0E2E3F0E08081E1
:1009700080958C93198202C083E0898389810F90CE
:100980000F900F900F90CF91DF910895DF93CF9349
:1009900000D000D000D0CDB7DEB78A837C836B83D4
:1009A00081E089838B819C81009709F442C08A8110
:1009B0008430E0F58A81282F30E03E832D838D81BD
:1009C0009E8181309105E1F02D813E8122303105FB
:1009D0002CF48D819E81009761F026C02D813E818F
:1009E00022303105A1F08D819E8183309105B1F0D7
:1009F0001BC0E9E3F0E08081EB81FC81808314C0BF
:100A0000E6E3F0E08081EB81FC8180830DC0E3E3CD
:100A1000F0E08081EB81FC81808306C0E0E3F0E0C0
:100A20008081EB81FC818083198205C083E089830A
:100A300002C082E08983898126960FB6F894DEBFD2
:100A40000FBECDBFCF91DF910895DF93CF9300D03C
:100A500000D000D0CDB7DEB78A836B834C8381E0B2
:100A600089838A81843008F0D0C08B81883008F077
:100A7000CCC08C81823008F0C8C08A81282F30E039
:100A80003E832D836D817E816130710509F441C003
:100A90008D819E818230910534F42D813E81211516
:100AA000310571F0B0C06D817E816230710509F44D
:100AB00059C08D819E818330910509F47CC0A3C00B
:100AC000AAE3B0E0EAE3F0E08081482F8B81282F91
:100AD00030E081E090E002C0880F991F2A95E2F78C
:100AE000809584238C93AAE3B0E0EAE3F0E0808170
:100AF000482F8C81282F30E08B81882F90E0B9011E
:100B000002C0660F771F8A95E2F7CB01842B8C9386
:100B10007AC0A7E3B0E0E7E3F0E08081482F8B8163
:100B2000282F30E081E090E002C0880F991F2A95BD
:100B3000E2F7809584238C93A7E3B0E0E7E3F0E04D
:100B40008081482F8C81282F30E08B81882F90E086
:100B5000B90102C0660F771F8A95E2F7CB01842B9B
:100B60008C9351C0A4E3B0E0E4E3F0E08081482F2F
:100B70008B81282F30E081E090E002C0880F991F20
:100B80002A95E2F7809584238C93A4E3B0E0E4E314
:100B9000F0E08081482F8C81282F30E08B81882FD6
:100BA00090E0B90102C0660F771F8A95E2F7CB018A
:100BB000842B8C9328C0A1E3B0E0E1E3F0E08081D6
:100BC000482F8B81282F30E081E090E002C0880F11
:100BD000991F2A95E2F7809584238C93A1E3B0E0D6
:100BE000E1E3F0E08081482F8C81282F30E08B8179
:100BF000882F90E0B90102C0660F771F8A95E2F74F
:100C0000CB01842B8C93198202C083E08983898174
:100C100026960FB6F894DEBF0FBECDBFCF91DF9101
:100C20000895DF93CF9300D000D000D0CDB7DEB7CA
:100C30008A836B834C8381E089838A81843008F0C6
:100C4000D0C08B81883008F0CCC08C81823008F015
:100C5000C8C08A81282F30E03E832D836D817E813C
:100C60006130710509F441C08D819E81823091050A
:100C700034F42D813E812115310571F0B0C06D81B4
:100C80007E816230710509F459C08D819E81833067
:100C9000910509F47CC0A3C0ABE3B0E0EBE3F0E066
:100CA0008081482F8B81282F30E081E090E002C0C6
:100CB000880F991F2A95E2F7809584238C93ABE3E4
:100CC000B0E0EBE3F0E08081482F8C81282F30E00A
:100CD0008B81882F90E0B90102C0660F771F8A953B
:100CE000E2F7CB01842B8C937AC0A8E3B0E0E8E371
:100CF000F0E08081482F8B81282F30E081E090E068
:100D000002C0880F991F2A95E2F7809584238C935F
:100D1000A8E3B0E0E8E3F0E08081482F8C81282F41
:100D200030E08B81882F90E0B90102C0660F771FF9
:100D30008A95E2F7CB01842B8C9351C0A5E3B0E0F8
:100D4000E5E3F0E08081482F8B81282F30E081E0BF
:100D500090E002C0880F991F2A95E2F780958423BE
:100D60008C93A5E3B0E0E5E3F0E08081482F8C812F
:100D7000282F30E08B81882F90E0B90102C0660FE8
:100D8000771F8A95E2F7CB01842B8C9328C0A2E3CE
:100D9000B0E0E2E3F0E08081482F8B81282F30E043
:100DA00081E090E002C0880F991F2A95E2F78095B4
:100DB00084238C93A2E3B0E0E2E3F0E08081482F4B
:100DC0008C81282F30E08B81882F90E0B90102C000
:100DD000660F771F8A95E2F7CB01842B8C931982DB
:100DE00002C083E08983898126960FB6F894DEBF1E
:100DF0000FBECDBFCF91DF910895DF93CF9300D089
:100E000000D00F92CDB7DEB78A836B8381E08983F0
:100E10008A81843008F074C08B81883008F070C0FB
:100E20008A81282F30E03D832C838C819D81813005
:100E3000910549F12C813D81223031052CF48C81C2
:100E40009D81009761F05AC02C813D81223031058F
:100E500071F18C819D8183309105E9F14FC0ABE345
:100E6000B0E0EBE3F0E08081482F8B81282F30E069
:100E700081E090E0022E02C0880F991F0A94E2F7E9
:100E800084278C933BC0A8E3B0E0E8E3F0E08081E6
:100E9000482F8B81282F30E081E090E0022E02C0A5
:100EA000880F991F0A94E2F784278C9327C0A5E343
:100EB000B0E0E5E3F0E08081482F8B81282F30E01F
:100EC00081E090E0022E02C0880F991F0A94E2F799
:100ED00084278C9313C0A2E3B0E0E2E3F0E08081CA
:100EE000482F8B81282F30E081E090E0022E02C055
:100EF000880F991F0A94E2F784278C93198202C005
:100F000083E0898389810F900F900F900F900F904D
:100F1000CF91DF910895DF93CF93CDB7DEB72797B9
:100F20000FB6F894DEBF0FBECDBF8A836B835D839F
:100F30004C8381E089838C819D81009709F47DC079
:100F40008A81843008F076C08B81883008F072C0C6
:100F50008A81282F30E03F832E834E815F8141308C
:100F6000510559F18E819F818230910534F42E8193
:100F70003F812115310569F05BC04E815F814230B0
:100F8000510579F18E819F818330910509F43DC02F
:100F90004FC0E9E3F0E08081282F30E08B81882F7B
:100FA00090E0A90102C0559547958A95E2F7CA01DC
:100FB0008170EC81FD8180833BC0E6E3F0E08081BD
:100FC000282F30E08B81882F90E0A90102C0559531
:100FD00047958A95E2F7CA018170EC81FD81808393
:100FE00027C0E3E3F0E08081282F30E08B81882F59
:100FF00090E0A90102C0559547958A95E2F7CA018C
:101000008170EC81FD81808313C0E0E3F0E080819A
:10101000282F30E08B81882F90E0A90102C05595E0
:1010200047958A95E2F7CA018170EC81FD81808342
:10103000198205C083E0898302C082E089838981A7
:1010400027960FB6F894DEBF0FBECDBFCF91DF91CC
:101050000895DF93CF93CDB7DEB783E062E040E041
:101060000E94250583E062E041E00E94110680E0D5
:1010700061E041E00E94250580E061E041E00E94DE
:1010800011068DE498E060E00E94E40280E690E0C2
:101090000E946F000E944900FFCFDF93CF93CDB72E
:1010A000DEB780E061E00E94FD06CF91DF910895F8
:0410B000F894FFCFE2
:0610B40001010000000034
:00000001FF
