:100000000C942A000C943F000C943F000C943F0089
:100010000C943F000C943F000C943F000C943F0064
:100020000C943F000C943F000C943F000C943F0054
:100030000C943F000C943F000C943F000C943F0044
:100040000C943F000C943F000C943F000C943F0034
:100050000C943F0011241FBECFE5D8E0DEBFCDBF1A
:1000600010E0A0E6B0E0E2E7F2E002C005900D92F9
:10007000AA36B107D9F70E9441000C9437010C94BD
:100080000000DF93CF93CDB7DEB760970FB6F8943B
:10009000DEBF0FBECDBF82E38983CE0102969D876E
:1000A0008C87E0E6F0E0FF87EE87FAE0F88BEE85DC
:1000B000FF8500808E859F8501969F878E87EC85C2
:1000C000FD8500828C859D8501969D878C8798890A
:1000D0009150988BE889EE2351F7EAE3F0E08FEF37
:1000E0008083E7E3F0E08FEF8083A1E3B0E0E1E31A
:1000F000F0E080818E7F8C93A1E3B0E0E1E3F0E05B
:1001000080818D7F8C93A2E3B0E0E2E3F0E0808118
:1001100081608C93A2E3B0E0E2E3F0E08081826052
:100120008C93ABE3B0E089819AE0692F0E942B01A8
:10013000892F282F30E0CE010296FC01E20FF31F39
:1001400080818C93A8E3B0E089819AE0692F0E94B6
:100150002B01282F30E0CE010296FC01E20FF31FA5
:1001600080818C93E0E3F0E08081882F90E08170C3
:100170009070009789F589818F5F898389818436A2
:1001800009F41982ABE3B0E089819AE0692F0E94FB
:100190002B01892F282F30E0CE010296FC01E20FBF
:1001A000F31F80818C93A8E3B0E089819AE0692FE6
:1001B0000E942B01282F30E0CE010296FC01E20FB5
:1001C000F31F80818C93E0E3F0E08081882F90E042
:1001D000817090700097B9F3E0E3F0E0808186953C
:1001E000882F90E081709070009709F0BBCF8981D3
:1001F000882311F484E68983898181508983ABE364
:10020000B0E089819AE0692F0E942B01892F282F65
:1002100030E0CE010296FC01E20FF31F80818C9347
:10022000A8E3B0E089819AE0692F0E942B01282F72
:1002300030E0CE010296FC01E20FF31F80818C9327
:10024000E0E3F0E080818695882F90E081709070E7
:100250000097B1F387CF991B79E004C0991F9617D7
:1002600008F0961B881F7A95C9F780950895F89431
:02027000FFCFBE
:0A0272003F065B4F666D7D077F6F4E
:00000001FF
