:100000000C942A000C946A080C949D080C94D00857
:100010000C9447000C9447000C9447000C94470044
:100020000C9447000C9447000C9447000C94470034
:100030000C9447000C9447000C9447000C94470024
:100040000C943A0F0C9447000C9447000C94470012
:100050000C94470011241FBECFE5D8E0DEBFCDBF12
:1000600010E0A0E6B0E0E8ECF7E202C005900D92E7
:10007000AE36B107D9F710E0AEE6B0E001C01D9290
:10008000A637B107E1F70E9485130C94E2130C9494
:100090000000EF92FF920F931F937B018C0120E0F1
:1000A00030E040E05FE40E94490388238CF0C801FF
:1000B000B70120E030E040E05FE40E94C1010E940F
:1000C000A9039B01AC01205030404040504806C07D
:1000D000C801B7010E94A9039B01AC01B901CA0183
:1000E0001F910F91FF90EF900895A0E0B0E0EBE733
:1000F000F0E00C94AB13DC012B01FA019C919230DF
:1001000008F439C1EB018881823008F433C194309E
:1001100069F4843009F02FC111969C91119789815F
:10012000981709F428C1A0E6B0E025C1843009F48D
:1001300021C18230A9F4923009F01DC19A01AD01AC
:1001400088E0EA010990AE01E90109929E0181501F
:10015000C1F7E201898111969C918923818308C1AD
:10016000923009F407C112962D903C901397EB0141
:100170008A819B811496AD90BD90CD90DC901797AD
:10018000EC80FD800E811F819101281B390BB90184
:1001900037FF04C066277727621B730B6032710537
:1001A0000CF061C0121613066CF537014801062EDB
:1001B00004C096948794779467940A94D2F721E0C8
:1001C00030E040E050E004C0220F331F441F551FB1
:1001D0006A95D2F721503040404050402E213F21B7
:1001E00040235123211531054105510521F021E01E
:1001F00030E040E050E079018A01E628F72808293C
:1002000019293CC0232BD1F1260E371E350146019A
:10021000062E04C096948794779467940A94D2F734
:1002200021E030E040E050E004C0220F331F441FC3
:10023000551F6A95D2F721503040404050402A2146
:100240003B214C215D21211531054105510521F04E
:1002500021E030E040E050E059016A01A628B728CB
:10026000C828D9280BC0821593052CF01C01AA249C
:10027000BB24650103C0EE24FF24870111969C91E5
:10028000D20111968C91981709F445C0992339F041
:10029000A80197012A193B094C095D0906C0A6016E
:1002A00095012E193F09400B510B57FD08C01182D3
:1002B0003382228224833583468357831DC081E0A5
:1002C00081833382228288279927DC01821B930B4A
:1002D000A40BB50B84839583A683B7830DC0220F2F
:1002E000331F441F551F24833583468357838281E0
:1002F000938101979383828324813581468157813D
:10030000DA01C9010197A109B1098F5F9F4FAF4F72
:10031000BF4328F30BC0918333822282EA0CFB1C7B
:100320000C1D1D1DE482F5820683178383E0808304
:10033000248135814681578157FF1AC0C901AA27F8
:1003400097FDA095BA2F81709070A070B0705695EF
:10035000479537952795822B932BA42BB52B848318
:100360009583A683B7838281938101969383828349
:10037000DF0101C0D201CD01CDB7DEB7E2E10C94BF
:10038000C713A0E2B0E0E7ECF1E00C94B713698387
:100390007A838B839C832D833E834F835887E9E048
:1003A000EE2EF12CEC0EFD1ECE010196B7010E943F
:1003B000D2048E010F5E1F4FCE010596B8010E9438
:1003C000D2048A8991E089278A8BC701B801AE01DE
:1003D000475E5F4F0E9475000E94FD03A096E6E015
:1003E0000C94D313A0E2B0E0E8EFF1E00C94B71363
:1003F00069837A838B839C832D833E834F835887C5
:10040000F9E0EF2EF12CEC0EFD1ECE010196B701A6
:100410000E94D2048E010F5E1F4FCE010596B801D7
:100420000E94D204C701B801AE01475E5F4F0E942F
:1004300075000E94FD03A096E6E00C94D313A0E2A1
:10044000B0E0E5E2F2E00C94AB1369837A838B832E
:100450009C832D833E834F835887CE010196BE0136
:10046000675F7F4F0E94D204CE010596BE016F5E8A
:100470007F4F0E94D2049985923088F0898982301A
:10048000C8F0943019F4823051F404C0843029F457
:10049000923081F480E690E0C6C0923049F420E0CA
:1004A0009A858A89981321E02A87CE010996BBC0D4
:1004B000823049F420E09A858A89981321E02A8BBA
:1004C000CE014196B0C02D843E844F8458886D88FB
:1004D0007E888F88988CEE24FF248701AA24BB2471
:1004E000650140E050E060E070E0E0E0F0E0C10174
:1004F00081709070892BE9F0E60CF71C081D191D1E
:100500009A01AB012A0D3B1D4C1D5D1D80E090E062
:10051000A0E0B0E0E614F7040805190520F481E036
:1005200090E0A0E0B0E0BA01A901480F591F6A1F8E
:100530007B1FAA0CBB1CCC1CDD1C97FE08C081E0F5
:1005400090E0A0E0B0E0A82AB92ACA2ADB2A3196B6
:10055000E032F10549F0660C771C881C991C569412
:10056000479437942794C3CFFA85EA892B893C892D
:100570008B859C85280F391F2E5F3F4F17C0CA01FE
:1005800081709070892B61F016950795F794E79428
:1005900080E090E0A0E0B0E8E82AF92A0A2B1B2BC3
:1005A00076956795579547952F5F3F4F77FDE7CF36
:1005B0000CC0440F551F661F771F17FD4160EE0CDE
:1005C000FF1C001F111F21503040403090E05907A0
:1005D00090E0690790E4790760F32B8F3C8FDB0193
:1005E000CA018F779070A070B07080349105A1051A
:1005F000B10561F447FD0AC0E114F10401051105DC
:1006000029F0405C5F4F6F4F7F4F40781A8EFE1786
:1006100011F081E08A8F4D8F5E8F6F8F78A383E01A
:10062000898FCE0149960E94FD03A096E2E10C94C9
:10063000C713A8E1B0E0EFE1F3E00C94B7136983CE
:100640007A838B839C832D833E834F83588789E0F5
:10065000E82EF12CEC0EFD1ECE010196B7010E9492
:10066000D2048E010F5E1F4FCE010596B8010E9485
:10067000D2048985823040F08989823028F0C70110
:10068000B8010E944A0501C08FEF6896E6E00C941D
:10069000D313A8E1B0E0EFE4F3E00C94B71369835F
:1006A0007A838B839C832D833E834F83588789E095
:1006B000E82EF12CEC0EFD1ECE010196B7010E9432
:1006C000D2048E010F5E1F4FCE010596B8010E9425
:1006D000D2048985823040F08989823028F0C701B0
:1006E000B8010E944A0501C08FEF6896E6E00C94BD
:1006F000D313A8E1B0E0EFE7F3E00C94B7136983FC
:100700007A838B839C832D833E834F83588789E034
:10071000E82EF12CEC0EFD1ECE010196B7010E94D1
:10072000D2048E010F5E1F4FCE010596B8010E94C4
:10073000D2048985823040F08989823028F0C7014F
:10074000B8010E944A0501C081E06896E6E00C9479
:10075000D313ACE0B0E0EFEAF3E00C94BB13698391
:100760007A838B839C83CE010196BE016B5F7F4FA2
:100770000E94D2048D81823061F1823050F1843048
:1007800021F48E81882351F12EC02F81388537FDC9
:1007900020C06E812F3131051CF06623F9F023C093
:1007A0008EE190E0821B930B29853A854B855C8511
:1007B00004C056954795379527958A95D2F76623B5
:1007C000B1F050954095309521953F4F4F4F5F4F79
:1007D0000EC020E030E040E050E009C02FEF3FEFD6
:1007E0004FEF5FE704C020E030E040E050E8B9019F
:1007F000CA012C96E2E00C94D713DF92EF92FF929D
:100800000F931F93FC01E480F58006811781D1804E
:100810008081823048F480E090E0A0E1B0E0E82AF6
:10082000F92A0A2B1B2BA5C0843009F49FC0823003
:1008300021F4EE24FF24870105C0E114F104010531
:10084000110519F4E0E0F0E096C0628173819FEF3A
:10085000623879070CF05BC022E83FEF261B370BAC
:100860002A3131052CF020E030E040E050E02AC091
:10087000B801A701022E04C0769567955795479554
:100880000A94D2F781E090E0A0E0B0E004C0880FC5
:10089000991FAA1FBB1F2A95D2F70197A109B10979
:1008A0008E219F21A023B1230097A105B10521F03E
:1008B00081E090E0A0E0B0E09A01AB01282B392B59
:1008C0004A2B5B2BDA01C9018F779070A070B07052
:1008D00080349105A105B10539F427FF09C0205CDA
:1008E0003F4F4F4F5F4F04C0215C3F4F4F4F5F4F13
:1008F000E0E0F0E02030A0E03A07A0E04A07A0E402
:100900005A0710F0E1E0F0E079018A0127C0603871
:10091000710564F5FB01E158FF4FD801C7018F77DE
:100920009070A070B07080349105A105B10539F4C4
:10093000E7FE0DC080E490E0A0E0B0E004C08FE3EB
:1009400090E0A0E0B0E0E80EF91E0A1F1B1F17FFA1
:1009500005C016950795F794E794319687E01695AC
:100960000795F794E7948A95D1F705C0EE24FF2404
:100970008701EFEFF0E06E2F679566276795902F60
:100980009F77D794DD24D7948E2F8695492F462BB9
:10099000582F5D29B701CA011F910F91FF90EF9069
:1009A000DF900895FC01DB01408151812281622F9B
:1009B0006F7770E0221F2227221F9381892F880FD3
:1009C000822B282F30E0991F9927991F11969C930D
:1009D000119721153105A9F54115510561057105DD
:1009E00011F482E037C082E89FEF13969C938E93B8
:1009F00012979A01AB0167E0220F331F441F551F66
:100A00006A95D1F783E08C930DC0220F331F441FEA
:100A1000551F12968D919C911397019713969C9355
:100A20008E931297203080E0380780E0480780E4FA
:100A3000580758F314962D933D934D935C93179755
:100A400008952F3F310579F4411551056105710570
:100A500019F484E08C93089564FF03C081E08C93C3
:100A600012C01C9210C02F57304013963C932E9307
:100A7000129783E08C9387E0440F551F661F771F02
:100A80008A95D1F7706414964D935D936D937C9322
:100A9000179708951F93DC01FB019C91923008F495
:100AA00047C08081823008F443C0943051F41196DD
:100AB0001C91843099F58181682F70E0611B710968
:100AC0003FC0843021F0923031F48230B9F181811D
:100AD000882389F12DC011961C9111978230F1F075
:100AE00081811817D9F412962D913C911397828128
:100AF00093818217930794F028173907BCF0149656
:100B00008D919D910D90BC91A02D248135814681C0
:100B10005781281739074A075B0718F4112341F05A
:100B20000AC082179307A407B50740F4112319F0F0
:100B300061E070E005C06FEF7FEF02C060E070E041
:100B4000CB011F910895DF93CF930F92CDB7DEB7FE
:100B500081E08983AFE5B0E0EFE5F0E08081806877
:100B60008C9389810F90CF91DF910895DF93CF937C
:100B70000F92CDB7DEB781E08983AFE5B0E0EFE556
:100B8000F0E080818F778C9389810F90CF91DF91F6
:100B90000895DF93CF93CDB7DEB72C970FB6F894B7
:100BA000DEBF0FBECDBF9C838B8381E08A838B81A8
:100BB0009C81009709F409C11982198201C18981B8
:100BC000882F90E09C01220F331F8B819C81FC01B8
:100BD000E20FF31F8081813009F0EFC08981282F57
:100BE00030E03C872B878B859C858130910509F40B
:100BF0005FC02B853C852230310509F4ADC08B8563
:100C00009C85009709F0D9C0ABE5B0E0EBE5F0E0DA
:100C1000808180648C93A5E5B0E0E5E5F0E080811B
:100C20008C7F8C938981882F90E09C01220F331F49
:100C30008B819C81FC01E20FF31F8181282F30E022
:100C40003A87298789859A8581309105F1F0298530
:100C50003A85223031052CF489859A85009769F010
:100C600024C029853A852230310509F4A6C089853A
:100C70009A858330910589F018C0A5E5B0E0E5E5D7
:100C8000F0E0808182608C9398C0A5E5B0E0E5E556
:100C9000F0E0808183608C9390C0A5E5B0E0E5E54D
:100CA000F0E0808181608C9388C083E08A8385C076
:100CB000ABE5B0E0EBE5F0E0808180688C93A5E5E2
:100CC000B0E0E5E5F0E08081837F8C938981882F17
:100CD00090E09C01220F331F8B819C81FC01E20F6D
:100CE000F31F8181282F30E038872F838F819885EB
:100CF00081309105F1F02F813885223031052CF4B7
:100D00008F819885009769F024C02F813885223023
:100D1000310509F452C08F8198858330910589F09F
:100D200018C0A5E5B0E0E5E5F0E0808188608C932F
:100D300044C0A5E5B0E0E5E5F0E080818C608C93EF
:100D40003CC0A5E5B0E0E5E5F0E0808184608C93EF
:100D500034C083E08A8331C0ABE5B0E0EBE5F0E07E
:100D6000808180628C93A4E5B0E0E4E5F0E08081CE
:100D70008F7B8C938981882F90E09C01220F331FF9
:100D80008B819C81FC01E20FF31F8181282F30E0D1
:100D90003E832D838D819E81009779F02D813E8148
:100DA0002130310541F4A4E5B0E0E4E5F0E08081D4
:100DB00080648C9302C083E08A8389818F5F8983FA
:100DC0008981833008F4FBCE02C082E08A838A8165
:100DD0002C960FB6F894DEBF0FBECDBFCF91DF913A
:100DE0000895DF93CF93CDB7DEB72B970FB6F89466
:100DF000DEBF0FBECDBF8A836B8381E089838A818A
:100E0000282F30E03B872A878A859B858130910592
:100E100009F44DC02A853B852230310509F489C08B
:100E20008A859B85009709F0A3C0A5E5B0E0E5E5BC
:100E3000F0E080818C7F8C938B81282F30E0398784
:100E400028878885998581309105F1F02885398535
:100E5000223031052CF488859985009769F024C0EB
:100E6000288539852230310509F482C08885998525
:100E70008330910589F018C0A5E5B0E0E5E5F0E024
:100E8000808182608C9374C0A5E5B0E0E5E5F0E078
:100E9000808183608C936CC0A5E5B0E0E5E5F0E06F
:100EA000808181608C9364C083E0898361C0A5E503
:100EB000B0E0E5E5F0E08081837F8C938B81282F83
:100EC00030E03F832E838E819F8181309105F1F048
:100ED0002E813F81223031052CF48E819F81009735
:100EE00069F024C02E813F812230310509F440C0D1
:100EF0008E819F818330910589F018C0A5E5B0E00F
:100F0000E5E5F0E0808188608C9332C0A5E5B0E033
:100F1000E5E5F0E080818C608C932AC0A5E5B0E027
:100F2000E5E5F0E0808184608C9322C083E08983D2
:100F30001FC0A4E5B0E0E4E5F0E080818F7B8C93F6
:100F40008B81282F30E03D832C838C819D810097FD
:100F500079F02C813D812130310541F4A4E5B0E0E8
:100F6000E4E5F0E0808180648C9302C083E08983B3
:100F700089812B960FB6F894DEBF0FBECDBFCF91FF
:100F8000DF910895DF93CF9300D000D0CDB7DEB7C7
:100F90008A8381E089838A81282F30E03C832B83F8
:100FA0008B819C818130910589F02B813C8122309D
:100FB0003105A1F08B819C810097C1F4ABE5B0E0D5
:100FC000EBE5F0E0808180648C9312C0ABE5B0E08B
:100FD000EBE5F0E0808180688C930AC0ABE5B0E07F
:100FE000EBE5F0E0808180628C9302C083E089832E
:100FF00089810F900F900F900F90CF91DF910895FE
:10100000DF93CF9300D000D0CDB7DEB78A8381E0E5
:1010100089838A81282F30E03C832B838B819C81BC
:101020008130910589F02B813C8122303105A1F07E
:101030008B819C810097C1F4ABE5B0E0EBE5F0E07B
:1010400080818F7B8C9312C0ABE5B0E0EBE5F0E0E4
:1010500080818F778C930AC0ABE5B0E0EBE5F0E0E0
:1010600080818F7D8C9302C083E0898389810F907A
:101070000F900F900F90CF91DF910895DF93CF9352
:1010800000D000D0CDB7DEB79B838A836C8381E02C
:1010900089838A819B81009799F08C81833068F4E1
:1010A0008C81882F90E02A813B81880F991FFC0159
:1010B000E259FF4F3183208305C083E0898302C05A
:1010C00082E0898389810F900F900F900F90CF91CC
:1010D000DF9108951F920F920FB60F9211242F9354
:1010E0003F934F935F936F937F938F939F93AF93B0
:1010F000BF93EF93FF93DF93CF93CDB7DEB780918C
:101100006E0090916F00009729F0E0916E00F091D1
:101110006F000995CF91DF91FF91EF91BF91AF9152
:101120009F918F917F916F915F914F913F912F91FF
:101130000F900FBE0F901F9018951F920F920FB631
:101140000F9211242F933F934F935F936F937F934D
:101150008F939F93AF93BF93EF93FF93DF93CF93BF
:10116000CDB7DEB78091700090917100009729F0A3
:10117000E0917000F09171000995CF91DF91FF919E
:10118000EF91BF91AF919F918F917F916F915F91FF
:101190004F913F912F910F900FBE0F901F90189578
:1011A0001F920F920FB60F9211242F933F934F93DC
:1011B0005F936F937F938F939F93AF93BF93EF93BF
:1011C000FF93DF93CF93CDB7DEB7809172009091FC
:1011D0007300009729F0E0917200F0917300099577
:1011E000CF91DF91FF91EF91BF91AF919F918F913F
:1011F0007F916F915F914F913F912F910F900FBE13
:101200000F901F901895DF93CF930F92CDB7DEB755
:1012100081E08983EAE3F0E08FEF8083E7E3F0E0A9
:1012200086EB8083E4E3F0E086EB8083E1E3F0E0AB
:1012300086EB8083EBE3F0E01082E8E3F0E08AE302
:101240008083E5E3F0E08AE38083E2E3F0E08AE391
:101250008083198289810F90CF91DF910895DF9368
:10126000CF9300D000D00F92CDB7DEB78A836B83C7
:1012700081E089838A818430A0F58A81282F30E03B
:101280003D832C838C819D8181309105D1F02C810F
:101290003D81223031052CF48C819D81009761F0D5
:1012A0001EC02C813D812230310581F08C819D81D1
:1012B0008330910581F013C0EAE3F0E08B818083F5
:1012C0000EC0E7E3F0E08B81808309C0E4E3F0E047
:1012D0008B81808304C0E1E3F0E08B8180831982FD
:1012E00002C083E0898389810F900F900F900F9047
:1012F0000F90CF91DF910895DF93CF9300D000D06E
:101300000F92CDB7DEB78A836B8381E089838A81B0
:101310008430A0F58A81282F30E03D832C838C8196
:101320009D8181309105D1F02C813D8122303105A4
:101330002CF48C819D81009761F01EC02C813D8131
:101340002230310581F08C819D818330910581F0BF
:1013500013C0EBE3F0E08B8180830EC0E8E3F0E0A4
:101360008B81808309C0E5E3F0E08B81808304C03A
:10137000E2E3F0E08B818083198202C083E08983FD
:1013800089810F900F900F900F900F90CF91DF9168
:101390000895DF93CF9300D000D0CDB7DEB78A8316
:1013A00081E089838A81843008F040C08A81282FB7
:1013B00030E03C832B838B819C8181309105E9F067
:1013C0002B813C81223031052CF48B819C8100974C
:1013D00061F02AC02B813C8122303105B1F08B8134
:1013E0009C8183309105C9F01FC0ABE3B0E0EBE313
:1013F000F0E0808180958C9317C0A8E3B0E0E8E32B
:10140000F0E0808180958C930FC0A5E3B0E0E5E328
:10141000F0E0808180958C9307C0A2E3B0E0E2E326
:10142000F0E0808180958C93198202C083E08983EB
:1014300089810F900F900F900F90CF91DF910895B9
:10144000DF93CF9300D000D000D0CDB7DEB78A8332
:101450007C836B8381E089838B819C81009709F475
:1014600042C08A818430E0F58A81282F30E03E83B3
:101470002D838D819E8181309105E1F02D813E810A
:10148000223031052CF48D819E81009761F026C0B9
:101490002D813E8122303105A1F08D819E818330E6
:1014A0009105B1F01BC0E9E3F0E08081EB81FC81A4
:1014B000808314C0E6E3F0E08081EB81FC818083CF
:1014C0000DC0E3E3F0E08081EB81FC81808306C006
:1014D000E0E3F0E08081EB81FC818083198205C02C
:1014E00083E0898302C082E08983898126960FB6D2
:1014F000F894DEBF0FBECDBFCF91DF910895DF938B
:10150000CF9300D000D000D0CDB7DEB78A836B83F5
:101510004C8381E089838A81843008F0D0C08B813C
:10152000883008F0CCC08C81823008F0C8C08A8135
:10153000282F30E03E832D836D817E8161307105DF
:1015400009F441C08D819E818230910534F42D8152
:101550003E812115310571F0B0C06D817E81623010
:10156000710509F459C08D819E818330910509F47C
:101570007CC0A3C0AAE3B0E0EAE3F0E08081482F9A
:101580008B81282F30E081E090E002C0880F991F06
:101590002A95E2F7809584238C93AAE3B0E0EAE3EE
:1015A000F0E08081482F8C81282F30E08B81882FBC
:1015B00090E0B90102C0660F771F8A95E2F7CB0170
:1015C000842B8C937AC0A7E3B0E0E7E3F0E080815E
:1015D000482F8B81282F30E081E090E002C0880FF7
:1015E000991F2A95E2F7809584238C93A7E3B0E0B6
:1015F000E7E3F0E08081482F8C81282F30E08B8159
:10160000882F90E0B90102C0660F771F8A95E2F734
:10161000CB01842B8C9351C0A4E3B0E0E4E3F0E071
:101620008081482F8B81282F30E081E090E002C03C
:10163000880F991F2A95E2F7809584238C93A4E361
:10164000B0E0E4E3F0E08081482F8C81282F30E087
:101650008B81882F90E0B90102C0660F771F8A95B1
:10166000E2F7CB01842B8C9328C0A1E3B0E0E1E347
:10167000F0E08081482F8B81282F30E081E090E0DE
:1016800002C0880F991F2A95E2F7809584238C93D6
:10169000A1E3B0E0E1E3F0E08081482F8C81282FC6
:1016A00030E08B81882F90E0B90102C0660F771F70
:1016B0008A95E2F7CB01842B8C93198202C083E0D8
:1016C0008983898126960FB6F894DEBF0FBECDBF01
:1016D000CF91DF910895DF93CF9300D000D000D059
:1016E000CDB7DEB78A836B834C8381E089838A819F
:1016F000843008F0D0C08B81883008F0CCC08C8159
:10170000823008F0C8C08A81282F30E03E832D83C4
:101710006D817E816130710509F441C08D819E81AA
:101720008230910534F42D813E812115310571F00F
:10173000B0C06D817E816230710509F459C08D8120
:101740009E818330910509F47CC0A3C0ABE3B0E077
:10175000EBE3F0E08081482F8B81282F30E081E09F
:1017600090E002C0880F991F2A95E2F780958423A4
:101770008C93ABE3B0E0EBE3F0E08081482F8C8109
:10178000282F30E08B81882F90E0B90102C0660FCE
:10179000771F8A95E2F7CB01842B8C937AC0A8E35C
:1017A000B0E0E8E3F0E08081482F8B81282F30E023
:1017B00081E090E002C0880F991F2A95E2F780959A
:1017C00084238C93A8E3B0E0E8E3F0E08081482F25
:1017D0008C81282F30E08B81882F90E0B90102C0E6
:1017E000660F771F8A95E2F7CB01842B8C9351C04B
:1017F000A5E3B0E0E5E3F0E08081482F8B81282F5E
:1018000030E081E090E002C0880F991F2A95E2F74E
:10181000809584238C93A5E3B0E0E5E3F0E080813C
:10182000482F8C81282F30E08B81882F90E0B901E0
:1018300002C0660F771F8A95E2F7CB01842B8C9349
:1018400028C0A2E3B0E0E2E3F0E08081482F8B8182
:10185000282F30E081E090E002C0880F991F2A9580
:10186000E2F7809584238C93A2E3B0E0E2E3F0E01A
:101870008081482F8C81282F30E08B81882F90E049
:10188000B90102C0660F771F8A95E2F7CB01842B5E
:101890008C93198202C083E08983898126960FB6D2
:1018A000F894DEBF0FBECDBFCF91DF910895DF93D7
:1018B000CF9300D000D00F92CDB7DEB78A836B8371
:1018C00081E089838A81843008F074C08B818830FC
:1018D00008F070C08A81282F30E03D832C838C81F2
:1018E0009D818130910549F12C813D812230310566
:1018F0002CF48C819D81009761F05AC02C813D8130
:101900002230310571F18C819D8183309105E9F19F
:101910004FC0ABE3B0E0EBE3F0E08081482F8B8178
:10192000282F30E081E090E0022E02C0880F991F3E
:101930000A94E2F784278C933BC0A8E3B0E0E8E385
:10194000F0E08081482F8B81282F30E081E090E00B
:10195000022E02C0880F991F0A94E2F784278C9305
:1019600027C0A5E3B0E0E5E3F0E08081482F8B815C
:10197000282F30E081E090E0022E02C0880F991FEE
:101980000A94E2F784278C9313C0A2E3B0E0E2E369
:10199000F0E08081482F8B81282F30E081E090E0BB
:1019A000022E02C0880F991F0A94E2F784278C93B5
:1019B000198202C083E0898389810F900F900F9074
:1019C0000F900F90CF91DF910895DF93CF93CDB714
:1019D000DEB727970FB6F894DEBF0FBECDBF8A8360
:1019E0006B835D834C8381E089838C819D8100972B
:1019F00009F47DC08A81843008F076C08B818830FC
:101A000008F072C08A81282F30E03F832E834E81F8
:101A10005F814130510559F18E819F81823091055E
:101A200034F42E813F812115310569F05BC04E8170
:101A30005F814230510579F18E819F81833091051C
:101A400009F43DC04FC0E9E3F0E08081282F30E089
:101A50008B81882F90E0A90102C0559547958A9502
:101A6000E2F7CA018170EC81FD8180833BC0E6E32F
:101A7000F0E08081282F30E08B81882F90E0A90151
:101A800002C0559547958A95E2F7CA018170EC81AD
:101A9000FD81808327C0E3E3F0E08081282F30E0E0
:101AA0008B81882F90E0A90102C0559547958A95B2
:101AB000E2F7CA018170EC81FD81808313C0E0E30D
:101AC000F0E08081282F30E08B81882F90E0A90101
:101AD00002C0559547958A95E2F7CA018170EC815D
:101AE000FD818083198205C083E0898302C082E082
:101AF0008983898127960FB6F894DEBF0FBECDBFCC
:101B0000CF91DF910895DF93CF930F92CDB7DEB7DA
:101B100081E08983A6E2B0E0E6E2F0E080818760C0
:101B20008C93A7E2B0E0E7E2F0E0808180648C93E0
:101B3000A7E2B0E0E7E2F0E0808180628C938981E7
:101B40000F90CF91DF910895DF93CF930F92CDB790
:101B5000DEB781E08983A6E2B0E0E6E2F0E08081D2
:101B600080648C9389810F90CF91DF910895DF93EA
:101B7000CF930F92CDB7DEB781E08983E6E2F0E044
:101B8000808182958F70882F90E08170907000978F
:101B9000A9F3A6E2B0E0E6E2F0E0808180618C93F8
:101BA00089810F90CF91DF910895DF93CF9300D07B
:101BB00000D0CDB7DEB79C838B8381E08A83198206
:101BC000E7E2F0E080818983EB81FC818981808379
:101BD0008A810F900F900F900F90CF91DF91089511
:101BE000DF93CF9300D00F92CDB7DEB79B838A836C
:101BF00081E08983E7E2F0E0808182958695869591
:101C00008370882F90E0EA81FB8191838083EA8151
:101C1000FB8120813181E7E2F0E08081882F90E034
:101C2000880F991F880F991F822B932BEA81FB81C4
:101C30009183808389810F900F900F90CF91DF91D6
:101C40000895DF93CF930F92CDB7DEB781E08983FC
:101C5000A6E2B0E0E6E2F0E0808188608C938981C2
:101C60000F90CF91DF910895DF93CF930F92CDB76F
:101C7000DEB781E08983A6E2B0E0E6E2F0E08081B1
:101C8000877F8C9389810F90CF91DF910895DF93A7
:101C9000CF930F92CDB7DEB781E08983A6E2B0E0A3
:101CA000E6E2F0E0808180688C9389810F90CF918B
:101CB000DF910895DF93CF930F92CDB7DEB781E028
:101CC0008983A6E2B0E0E6E2F0E080818F778C9332
:101CD00089810F90CF91DF910895DF93CF9300D04A
:101CE00000D0CDB7DEB78A8381E08983A7E2B0E078
:101CF000E7E2F0E08081807E8C938A81282F30E0BB
:101D00003C832B838B819C818430910509F442C0F4
:101D10002B813C812530310584F48B819C8182307C
:101D2000910541F12B813C81233031055CF58B819C
:101D30009C8181309105B1F04DC02B813C812630D2
:101D40003105C1F18B819C81863091055CF12B813D
:101D50003C8127303105B1F18B819C818631910521
:101D6000D9F138C0A7E2B0E0E7E2F0E0808181601D
:101D70008C9332C0A7E2B0E0E7E2F0E080818260BD
:101D80008C932AC0A7E2B0E0E7E2F0E080818360B4
:101D90008C9322C0A7E2B0E0E7E2F0E080818460AB
:101DA0008C931AC0A7E2B0E0E7E2F0E080818560A2
:101DB0008C9312C0A7E2B0E0E7E2F0E08081866099
:101DC0008C930AC0A7E2B0E0E7E2F0E08081876090
:101DD0008C9302C083E0898389810F900F900F90CC
:101DE0000F90CF91DF910895DF93CF9300D0CDB7BF
:101DF000DEB78A8381E08983A0E5B0E0E0E5F0E02A
:101E000080818F718C93A6E2B0E0E6E2F0E0808101
:101E100080628C9389810F900F90CF91DF9108950C
:101E2000DF93CF930F92CDB7DEB781E08983A6E22F
:101E3000B0E0E6E2F0E080818F7D8C9389810F90A5
:101E4000CF91DF910895DF93CF9300D00F92CDB75C
:101E5000DEB79B838A8381E089838A819B8190930B
:101E600075008093740089810F900F900F90CF912F
:101E7000DF9108951F920F920FB60F9211242F93A6
:101E80003F934F935F936F937F938F939F93AF9302
:101E9000BF93EF93FF93DF93CF93CDB7DEB78091DE
:101EA000740090917500009729F0E0917400F09112
:101EB00075000995CF91DF91FF91EF91BF91AF919F
:101EC0009F918F917F916F915F914F913F912F9152
:101ED0000F900FBE0F901F901895DF93CF93CDB743
:101EE000DEB7E8970FB6F894DEBF0FBECDBF80E037
:101EF00090E0A0E2B2E48DAB9EABAFABB8AF6DA902
:101F00007EA98FA998AD20E030E04AE753E40E9413
:101F10001F02DC01CB0189AB9AABABABBCAB69A9AF
:101F20007AA98BA99CA920E030E040E85FE30E94F9
:101F3000790388232CF481E090E098AB8FA73FC011
:101F400069A97AA98BA99CA920E03FEF4FE757E444
:101F50000E94190318164CF56DA97EA98FA998AD9A
:101F600020E030E040E251E40E941F02DC01CB019E
:101F7000BC01CD010E944900DC01CB0198AB8FA7C9
:101F80000FC089E190E09EA78DA78DA59EA5019722
:101F9000F1F79EA78DA78FA598A9019798AB8FA75A
:101FA0008FA598A9009769F714C069A97AA98BA988
:101FB0009CA90E944900DC01CB0198AB8FA78FA59B
:101FC00098A99CA78BA78BA59CA50197F1F79CA727
:101FD0008BA780E062E041E00E947F0A80E060E041
:101FE00041E00E947F0A80E061E041E00E947F0AB8
:101FF00081E064E041E00E947F0A81E065E041E029
:102000000E947F0A81E066E041E00E947F0A81E051
:1020100067E041E00E947F0A81E060E041E00E94C9
:102020007F0A81E061E041E00E947F0A81E062E096
:1020300041E00E947F0A81E063E041E00E947F0A64
:1020400080E060E040E00E946B0B88E30E94911109
:1020500080E090E0A0E8BFE38FA398A7A9A7BAA764
:102060006FA178A589A59AA520E030E04AE753E45E
:102070000E941F02DC01CB018BA39CA3ADA3BEA3D6
:102080006BA17CA18DA19EA120E030E040E85FE340
:102090000E94790388232CF481E090E09AA389A31D
:1020A0003FC06BA17CA18DA19EA120E03FEF4FE737
:1020B00057E40E94190318164CF56FA178A589A55D
:1020C0009AA520E030E040E251E40E941F02DC01CA
:1020D000CB01BC01CD010E944900DC01CB019AA3D8
:1020E00089A30FC089E190E098A38F8F8F8D98A16D
:1020F0000197F1F798A38F8F89A19AA101979AA3CD
:1021000089A389A19AA1009769F714C06BA17CA14A
:102110008DA19EA10E944900DC01CB019AA389A355
:1021200089A19AA19E8F8D8F8D8D9E8D0197F1F73C
:102130009E8F8D8F8FE00E94911180E090E0A0E84B
:10214000BFE3898F9A8FAB8FBC8F698D7A8D8B8D12
:102150009C8D20E030E04AE753E40E941F02DC013E
:10216000CB018D8B9E8BAF8BB88F6D897E898F89CC
:10217000988D20E030E040E85FE30E9479038823F7
:102180002CF481E090E09C8B8B8B3FC06D897E8925
:102190008F89988D20E03FEF4FE757E40E941903A5
:1021A00018164CF5698D7A8D8B8D9C8D20E030E072
:1021B00040E251E40E941F02DC01CB01BC01CD01D1
:1021C0000E944900DC01CB019C8B8B8B0FC089E105
:1021D00090E09A8B898B89899A890197F1F79A8B7C
:1021E000898B8B899C8901979C8B8B8B8B899C8994
:1021F000009769F714C06D897E898F89988D0E9438
:102200004900DC01CB019C8B8B8B8B899C89988B43
:102210008F878F8598890197F1F7988B8F8781E059
:102220000E94911180E090E0A0ECBFE38B879C8737
:10223000AD87BE876B857C858D859E8520E030E0EF
:102240004AE753E40E941F02DC01CB018F83988789
:10225000A987BA876F81788589859A8520E030E0E3
:1022600040E85FE30E94790388232CF481E090E04A
:102270009E838D833FC06F81788589859A8520E014
:102280003FEF4FE757E40E94190318164CF56B8592
:102290007C858D859E8520E030E040E251E40E94FF
:1022A0001F02DC01CB01BC01CD010E944900DC0111
:1022B000CB019E838D830FC089E190E09C838B834B
:1022C0008B819C810197F1F79C838B838D819E810B
:1022D00001979E838D838D819E81009769F714C03D
:1022E0006F81788589859A850E944900DC01CB0140
:1022F0009E838D838D819E819A83898389819A8132
:102300000197F1F79A83898386E00E94911180E01A
:10231000E8960FB6F894DEBF0FBECDBFCF91DF9128
:102320000895DF93CF93CDB7DEB72F970FB6F8940C
:10233000DEBF0FBECDBF8F8780E062E040E00E942D
:102340006B0B80E061E040E00E946B0B8F85829513
:102350008F70982F917081E064E0492F0E946B0B81
:102360008F85829586958770982F917081E065E0C2
:10237000492F0E946B0B8F85829586958695837079
:10238000982F917081E066E0492F0E946B0B8F853A
:10239000982F991F9927991F81E067E0492F0E9484
:1023A0006B0B8F85982F917081E060E0492F0E9420
:1023B0006B0B8F858695982F917081E061E0492F96
:1023C0000E946B0B8F8586958695982F917081E082
:1023D00062E0492F0E946B0B8F85869586958695C6
:1023E000982F917081E063E0492F0E946B0B80E091
:1023F00062E041E00E946B0B80E090E0A0E2B1E47B
:102400008B879C87AD87BE876B857C858D859E85F8
:1024100020E030E04AE753E40E941F02DC01CB01D8
:102420008F839887A987BA876F81788589859A85F0
:1024300020E030E040E85FE30E94790388232CF439
:1024400081E090E09E838D833FC06F817885898590
:102450009A8520E03FEF4FE757E40E9419031816D2
:102460004CF56B857C858D859E8520E030E040E2D3
:1024700051E40E941F02DC01CB01BC01CD010E948E
:102480004900DC01CB019E838D830FC089E190E080
:102490009C838B838B819C810197F1F79C838B8339
:1024A0008D819E8101979E838D838D819E81009772
:1024B00069F714C06F81788589859A850E944900E3
:1024C000DC01CB019E838D838D819E819A838983DC
:1024D00089819A810197F1F79A83898380E062E08C
:1024E00040E00E946B0B2F960FB6F894DEBF0FBE34
:1024F000CDBFCF91DF910895DF93CF93CDB7DEB7F6
:1025000060970FB6F894DEBF0FBECDBF888B81E019
:102510008F8780E062E040E00E946B0B80E060E02B
:1025200040E00E946B0B80E061E040E00E946B0B9A
:10253000888982958F70982F917081E064E0492F8F
:102540000E946B0B8889829586958770982F917071
:1025500081E065E0492F0E946B0B88898295869502
:1025600086958370982F917081E066E0492F0E94D4
:102570006B0B8889982F991F9927991F81E067E035
:10258000492F0E946B0B8889982F917081E060E041
:10259000492F0E946B0B88898695982F917081E056
:1025A00061E0492F0E946B0B888986958695982F4C
:1025B000917081E062E0492F0E946B0B88898695BB
:1025C00086958695982F917081E063E0492F0E944F
:1025D0006B0B80E062E041E00E946B0B80E090E0DA
:1025E000A0E2B1E48B879C87AD87BE876B857C8535
:1025F0008D859E8520E030E04AE753E40E941F026B
:10260000DC01CB018F839887A987BA876F81788592
:1026100089859A8520E030E040E85FE30E947903F5
:1026200088232CF481E090E09E838D833FC06F81EE
:10263000788589859A8520E03FEF4FE757E40E942F
:10264000190318164CF56B857C858D859E8520E0D9
:1026500030E040E251E40E941F02DC01CB01BC01EA
:10266000CD010E944900DC01CB019E838D830FC008
:1026700089E190E09C838B838B819C810197F1F7AA
:102680009C838B838D819E8101979E838D838D8119
:102690009E81009769F714C06F81788589859A8536
:1026A0000E944900DC01CB019E838D838D819E8138
:1026B0009A83898389819A810197F1F79A83898323
:1026C00080E062E040E00E946B0B8F8560960FB661
:1026D000F894DEBF0FBECDBFCF91DF910895DF9399
:1026E000CF9300D0CDB7DEB78A8381E0898380E0C5
:1026F00060E041E00E946B0B8A810E949111898108
:102700000F900F90CF91DF910895DF93CF930F92A9
:10271000CDB7DEB782E06FEF0E942F0980E060E066
:1027200040E00E947F0A0E94470E0E94830D86E1CE
:102730000E946D0E0E94100F19820E94A40D0E942B
:10274000B70DCE0101960E94D50D998182E0692FC7
:102750000E947C09F2CF2F923F924F925F926F922C
:102760007F928F929F92AF92BF92CF92DF92EF9221
:10277000FF920F931F93CF93DF93CDB7DEB7CA1BA2
:10278000DB0B0FB6F894DEBF0FBECDBF09942A88CD
:10279000398848885F846E847D848C849B84AA8475
:1027A000B984C884DF80EE80FD800C811B81AA8102
:1027B000B981CE0FD11D0FB6F894DEBF0FBECDBFCD
:0827C000ED010895F894FFCF2C
:0E27C800000000000000000001010000000001
:00000001FF
