:100000000C942A000C943F000C943F000C943F0089
:100010000C943F000C943F000C943F000C943F0064
:100020000C943F000C943F000C943F000C943F0054
:100030000C943F000C943F000C943F000C943F0044
:100040000C943F000C943F000C943F000C943F0034
:100050000C943F0011241FBECFE5D8E0DEBFCDBF1A
:1000600010E0A0E6B0E0ECE5FFE002C005900D92E4
:10007000A837B107D9F70E9438070C94AC070C9445
:100080000000DF93CF930F92CDB7DEB781E0898375
:10009000EAE3F0E08FEF8083E7E3F0E086EB808334
:1000A000E4E3F0E086EB8083E1E3F0E086EB80833D
:1000B000EBE3F0E01082E8E3F0E08AE38083E5E33D
:1000C000F0E08AE38083E2E3F0E08AE38083198250
:1000D00089810F90CF91DF910895DF93CF9300D066
:1000E00000D00F92CDB7DEB78A836B8381E089831E
:1000F0008A818430A0F58A81282F30E03D832C83CB
:100100008C819D8181309105D1F02C813D812230FF
:1001100031052CF48C819D81009761F01EC02C81EB
:100120003D812230310581F08C819D8183309105A4
:1001300081F013C0EAE3F0E08B8180830EC0E7E337
:10014000F0E08B81808309C0E4E3F0E08B81808361
:1001500004C0E1E3F0E08B818083198202C083E078
:10016000898389810F900F900F900F900F90CF91FE
:10017000DF910895DF93CF9300D000D00F92CDB7D9
:10018000DEB78A836B8381E089838A818430A0F51E
:100190008A81282F30E03D832C838C819D818130A2
:1001A0009105D1F02C813D81223031052CF48C81D8
:1001B0009D81009761F01EC02C813D812230310568
:1001C00081F08C819D818330910581F013C0EBE338
:1001D000F0E08B8180830EC0E8E3F0E08B818083C8
:1001E00009C0E5E3F0E08B81808304C0E2E3F0E046
:1001F0008B818083198202C083E0898389810F907B
:100200000F900F900F900F90CF91DF910895DF9393
:10021000CF9300D000D0CDB7DEB78A8381E0898349
:100220008A81843008F040C08A81282F30E03C83E6
:100230002B838B819C8181309105E9F02B813C815E
:10024000223031052CF48B819C81009761F02AC00B
:100250002B813C8122303105B1F08B819C81833030
:100260009105C9F01FC0ABE3B0E0EBE3F0E08081A3
:1002700080958C9317C0A8E3B0E0E8E3F0E08081BC
:1002800080958C930FC0A5E3B0E0E5E3F0E08081BA
:1002900080958C9307C0A2E3B0E0E2E3F0E08081B8
:1002A00080958C93198202C083E0898389810F90A5
:1002B0000F900F900F90CF91DF910895DF93CF9320
:1002C00000D000D000D0CDB7DEB78A837C836B83AB
:1002D00081E089838B819C81009709F442C08A81E7
:1002E0008430E0F58A81282F30E03E832D838D8194
:1002F0009E8181309105E1F02D813E8122303105D2
:100300002CF48D819E81009761F026C02D813E8165
:1003100022303105A1F08D819E8183309105B1F0AD
:100320001BC0E9E3F0E08081EB81FC81808314C095
:10033000E6E3F0E08081EB81FC8180830DC0E3E3A4
:10034000F0E08081EB81FC81808306C0E0E3F0E097
:100350008081EB81FC818083198205C083E08983E1
:1003600002C082E08983898126960FB6F894DEBFA9
:100370000FBECDBFCF91DF910895DF93CF9300D013
:1003800000D000D0CDB7DEB78A836B834C8381E089
:1003900089838A81843008F0D0C08B81883008F04E
:1003A000CCC08C81823008F0C8C08A81282F30E010
:1003B0003E832D836D817E816130710509F441C0DA
:1003C0008D819E818230910534F42D813E812115ED
:1003D000310571F0B0C06D817E816230710509F424
:1003E00059C08D819E818330910509F47CC0A3C0E2
:1003F000AAE3B0E0EAE3F0E08081482F8B81282F68
:1004000030E081E090E002C0880F991F2A95E2F762
:10041000809584238C93AAE3B0E0EAE3F0E0808146
:10042000482F8C81282F30E08B81882F90E0B901F4
:1004300002C0660F771F8A95E2F7CB01842B8C935D
:100440007AC0A7E3B0E0E7E3F0E08081482F8B813A
:10045000282F30E081E090E002C0880F991F2A9594
:10046000E2F7809584238C93A7E3B0E0E7E3F0E024
:100470008081482F8C81282F30E08B81882F90E05D
:10048000B90102C0660F771F8A95E2F7CB01842B72
:100490008C9351C0A4E3B0E0E4E3F0E08081482F06
:1004A0008B81282F30E081E090E002C0880F991FF7
:1004B0002A95E2F7809584238C93A4E3B0E0E4E3EB
:1004C000F0E08081482F8C81282F30E08B81882FAD
:1004D00090E0B90102C0660F771F8A95E2F7CB0161
:1004E000842B8C9328C0A1E3B0E0E1E3F0E08081AD
:1004F000482F8B81282F30E081E090E002C0880FE8
:10050000991F2A95E2F7809584238C93A1E3B0E0AC
:10051000E1E3F0E08081482F8C81282F30E08B814F
:10052000882F90E0B90102C0660F771F8A95E2F725
:10053000CB01842B8C93198202C083E0898389814B
:1005400026960FB6F894DEBF0FBECDBFCF91DF91D8
:100550000895DF93CF9300D000D000D0CDB7DEB7A1
:100560008A836B834C8381E089838A81843008F09D
:10057000D0C08B81883008F0CCC08C81823008F0EC
:10058000C8C08A81282F30E03E832D836D817E8113
:100590006130710509F441C08D819E8182309105E1
:1005A00034F42D813E812115310571F0B0C06D818B
:1005B0007E816230710509F459C08D819E8183303E
:1005C000910509F47CC0A3C0ABE3B0E0EBE3F0E03D
:1005D0008081482F8B81282F30E081E090E002C09D
:1005E000880F991F2A95E2F7809584238C93ABE3BB
:1005F000B0E0EBE3F0E08081482F8C81282F30E0E1
:100600008B81882F90E0B90102C0660F771F8A9511
:10061000E2F7CB01842B8C937AC0A8E3B0E0E8E347
:10062000F0E08081482F8B81282F30E081E090E03E
:1006300002C0880F991F2A95E2F7809584238C9336
:10064000A8E3B0E0E8E3F0E08081482F8C81282F18
:1006500030E08B81882F90E0B90102C0660F771FD0
:100660008A95E2F7CB01842B8C9351C0A5E3B0E0CF
:10067000E5E3F0E08081482F8B81282F30E081E096
:1006800090E002C0880F991F2A95E2F78095842395
:100690008C93A5E3B0E0E5E3F0E08081482F8C8106
:1006A000282F30E08B81882F90E0B90102C0660FBF
:1006B000771F8A95E2F7CB01842B8C9328C0A2E3A5
:1006C000B0E0E2E3F0E08081482F8B81282F30E01A
:1006D00081E090E002C0880F991F2A95E2F780958B
:1006E00084238C93A2E3B0E0E2E3F0E08081482F22
:1006F0008C81282F30E08B81882F90E0B90102C0D7
:10070000660F771F8A95E2F7CB01842B8C931982B1
:1007100002C083E08983898126960FB6F894DEBFF4
:100720000FBECDBFCF91DF910895DF93CF9300D05F
:1007300000D00F92CDB7DEB78A836B8381E08983C7
:100740008A81843008F074C08B81883008F070C0D2
:100750008A81282F30E03D832C838C819D818130DC
:10076000910549F12C813D81223031052CF48C8199
:100770009D81009761F05AC02C813D812230310566
:1007800071F18C819D8183309105E9F14FC0ABE31C
:10079000B0E0EBE3F0E08081482F8B81282F30E040
:1007A00081E090E0022E02C0880F991F0A94E2F7C0
:1007B00084278C933BC0A8E3B0E0E8E3F0E08081BD
:1007C000482F8B81282F30E081E090E0022E02C07C
:1007D000880F991F0A94E2F784278C9327C0A5E31A
:1007E000B0E0E5E3F0E08081482F8B81282F30E0F6
:1007F00081E090E0022E02C0880F991F0A94E2F770
:1008000084278C9313C0A2E3B0E0E2E3F0E08081A0
:10081000482F8B81282F30E081E090E0022E02C02B
:10082000880F991F0A94E2F784278C93198202C0DB
:1008300083E0898389810F900F900F900F900F9024
:10084000CF91DF910895DF93CF93CDB7DEB7279790
:100850000FB6F894DEBF0FBECDBF8A836B835D8376
:100860004C8381E089838C819D81009709F47DC050
:100870008A81843008F076C08B81883008F072C09D
:100880008A81282F30E03F832E834E815F81413063
:10089000510559F18E819F818230910534F42E816A
:1008A0003F812115310569F05BC04E815F81423087
:1008B000510579F18E819F818330910509F43DC006
:1008C0004FC0E9E3F0E08081282F30E08B81882F52
:1008D00090E0A90102C0559547958A95E2F7CA01B3
:1008E0008170EC81FD8180833BC0E6E3F0E0808194
:1008F000282F30E08B81882F90E0A90102C0559508
:1009000047958A95E2F7CA018170EC81FD81808369
:1009100027C0E3E3F0E08081282F30E08B81882F2F
:1009200090E0A90102C0559547958A95E2F7CA0162
:100930008170EC81FD81808313C0E0E3F0E0808171
:10094000282F30E08B81882F90E0A90102C05595B7
:1009500047958A95E2F7CA018170EC81FD81808319
:10096000198205C083E0898302C082E0898389817E
:1009700027960FB6F894DEBF0FBECDBFCF91DF91A3
:100980000895DF93CF9300D000D0CDB7DEB79C831E
:100990008B8381E08A838B819C81009709F45DC001
:1009A0001982198255C08981282F30E0C901880F2A
:1009B000991F280F391F8B819C81FC01E20FF31FC7
:1009C00040818981282F30E0C901880F991F280FA5
:1009D000391F8B819C81FC01E20FF31F9181842FD1
:1009E000692F40E00E94BD018A838981282F30E071
:1009F000C901880F991F280F391F8B819C81FC0129
:100A0000E20FF31F50818981282F30E0C901880F40
:100A1000991F280F391F8B819C81FC01E20FF31F66
:100A200041818981282F30E0C901880F991F280F43
:100A3000391F8B819C81FC01E20FF31F9281852F6E
:100A4000642F492F0E94A9028A8389818F5F89833D
:100A50008981843008F4A7CF02C082E08A838A812A
:100A60000F900F900F900F90CF91DF910895DF932B
:100A7000CF9300D000D000D0CDB7DEB79B838A8360
:100A80004C835D836E8381E089838A819B8100979B
:100A900069F1EA81FB818081843028F58C81843082
:100AA00010F5EA81FB8181818830E8F48D818830FE
:100AB000D0F48E81813019F08E818823A1F48C814D
:100AC0009D81692F40E00E94BD0189838C81EA816C
:100AD000FB8180838D81EA81FB8181838E81EA8124
:100AE000FB81828305C083E0898302C082E0898321
:100AF000898126960FB6F894DEBF0FBECDBFCF9189
:100B0000DF910895DF93CF9300D000D000D0CDB710
:100B1000DEB79B838A837D836C8381E089838A81AE
:100B20009B810097F9F0EA81FB818081EA81FB815A
:100B300091812C813D81692FA9010E942304898321
:100B4000EA81FB818281882379F4EC81FD818081B7
:100B50001E82882311F481E08E83EC81FD818E81D9
:100B6000808302C082E08983898126960FB6F8943B
:100B7000DEBF0FBECDBFCF91DF910895DF93CF933E
:100B8000CDB7DEB727970FB6F894DEBF0FBECDBF47
:100B90009C838B8381E08A838B819C81009709F4FD
:100BA000B7C01982B0C08981882F90E09C01220FC4
:100BB000331F220F331F8B819C81FC01E20FF31F37
:100BC00040818981882F90E09C01220F331F220FE2
:100BD000331F8B819C81FC01E20FF31F9181842FD5
:100BE000692F41E00E94BD018A838981882F90E0AE
:100BF0009C01220F331F220F331F8B819C81FC012C
:100C0000E20FF31F82818823C1F58981882F90E04C
:100C10009C01220F331F220F331F8B819C81FC010B
:100C2000E20FF31F80818F838981882F90E09C01E0
:100C3000220F331F220F331F8B819C81FC01E20F97
:100C4000F31F81818E838981882F90E09C01220F80
:100C5000331F220F331F8B819C81FC01E20FF31F96
:100C600083811D82882311F481E08D838F816E81C1
:100C70004D810E94A9028A8343C08981882F90E018
:100C80009C01220F331F220F331F8B819C81FC019B
:100C9000E20FF31F8281813089F58981882F90E0EE
:100CA0009C01220F331F220F331F8B819C81FC017B
:100CB000E20FF31F50818981882F90E09C01220F61
:100CC000331F220F331F8B819C81FC01E20FF31F26
:100CD00041818981882F90E09C01220F331F220FD0
:100CE000331F8B819C81FC01E20FF31F9381852FC1
:100CF000642F492F0E94A9028A8302C083E08A835D
:100D000089818F5F89838981833008F44CCF02C049
:100D100082E08A838A8127960FB6F894DEBF0FBEE1
:100D2000CDBFCF91DF910895DF93CF93CDB7DEB7DD
:100D300027970FB6F894DEBF0FBECDBF9B838A8383
:100D40006C8381E089838A819B81009771F1EA81BC
:100D5000FB8182818823A9F4EA81FB8180818F83D2
:100D6000EA81FB8181818E831D828C81882311F42D
:100D700081E08D838F816E814D810E94A9028983DC
:100D800016C0EA81FB818281813061F4EA81FB81B6
:100D90008081EA81FB819181692F4C810E94A902A7
:100DA000898305C083E0898302C082E089838981C9
:100DB00027960FB6F894DEBF0FBECDBFCF91DF915F
:100DC0000895DF93CF93CDB7DEB727970FB6F8948A
:100DD000DEBF0FBECDBF9B838A834C835D836E8352
:100DE0007F8381E089838A819B810097A9F1EA81D1
:100DF000FB818081843068F58C81843050F5EA81F4
:100E0000FB818181883028F58D81883010F58E81B5
:100E1000882319F08E818130E1F48C819D81692FC6
:100E200041E00E94BD0189838C81EA81FB8180833E
:100E30008D81EA81FB8181838E81EA81FB818283BE
:100E40008C819D812F81692F422F0E94A902898365
:100E500005C083E0898302C082E089838981279667
:100E60000FB6F894DEBF0FBECDBFCF91DF910895CE
:100E7000DF93CF93CDB7DEB72F970FB6F894DEBFD1
:100E80000FBECDBF9E012F5F3F4F3C872B8785E76D
:100E900090E09E878D8793E09F87ED85FE8500809B
:100EA0002D853E852F5F3F4F3E872D87EB85FC8547
:100EB00000822B853C852F5F3F4F3C872B873F85EA
:100EC00031503F878F85882341F71C8283E08D83D3
:100ED00081E08E831F820E94410080E690E00E94A4
:100EE000C10489E690E00E94BE0580E690E0498159
:100EF0005A816B810E94370589E690E02C813D8103
:100F00004E815F81BA01A9010E94E10681E08887D4
:100F100080E690E09E01285F3F4FB9010E94820564
:100F20008885E82FF0E0FA87E98729853A85211539
:100F3000310531F089859A858130910539F0E8CF06
:100F400089E690E060E00E949406E2CF89E690E0B6
:0C0F500061E00E949406DCCFF894FFCF13
:100F5C000000000001000005000002000001050176
:080F6C00000305000003000171
:00000001FF
