:100000000C942A000C9434000C9434000C943400AA
:100010000C9434000C9434000C9434000C94340090
:100020000C9434000C9434000C9434000C94340080
:100030000C9434000C9434000C9434000C94340070
:100040000C9434000C9434000C9434000C94340060
:100050000C94340011241FBECFE5D8E0DEBFCDBF25
:100060000E9436000C94DD000C940000DF93CF93C7
:10007000CDB7DEB7AAE3B0E0EAE3F0E080818160CB
:100080008C93AAE3B0E0EAE3F0E0808182608C9395
:10009000EBE3F0E01082A7E3B0E0E7E3F0E080817B
:1000A0008E7F8C93A7E3B0E0E7E3F0E080818D7F63
:1000B0008C93A7E3B0E0E7E3F0E080818B7F8C9343
:1000C000A8E3B0E0E8E3F0E0808181608C93A8E3EE
:1000D000B0E0E8E3F0E0808182608C93A8E3B0E0D8
:1000E000E8E3F0E0808184608C93ABE3B0E0EBE385
:1000F000F0E080818E7F8C93ABE3B0E0EBE3F0E047
:1001000080818D7F8C93E6E3F0E08081882F90E002
:1001100081709070009781F4ABE3B0E0EBE3F0E026
:10012000808181608C93E6E3F0E08081882F90E00D
:10013000817090700097B9F3E6E3F0E080818695D6
:10014000882F90E081709070009789F4ABE3B0E065
:10015000EBE3F0E0808182608C93E6E3F0E0808165
:100160008695882F90E0817090700097B1F3E6E358
:10017000F0E0808186958695882F90E08170907060
:10018000009709F0B2CFABE3B0E0EBE3F0E08081A1
:1001900081608C93ABE3B0E0EBE3F0E080818260C0
:1001A0008C93E6E3F0E0808186958695882F90E039
:0E01B000817090700097A9F398CFF894FFCF5C
:00000001FF
