:100000000C942A000C943F000C943F000C943F0089
:100010000C943F000C943F000C943F000C943F0064
:100020000C943F000C943F000C943F000C943F0054
:100030000C943F000C943F000C943F000C943F0044
:100040000C943F000C943F000C943F000C943F0034
:100050000C943F0011241FBECFE5D8E0DEBFCDBF1A
:1000600010E0A0E6B0E0EAECF1E002C005900D92ED
:10007000AA36B107D9F70E9441000C94E3000C9412
:100080000000DF93CF93CDB7DEB760970FB6F8943B
:10009000DEBF0FBECDBFCE0102969D878C87E0E606
:1000A000F0E0FF87EE87FAE0F88BEE85FF850080B1
:1000B0008E859F8501969F878E87EC85FD850082C2
:1000C0008C859D8501969D878C8798899150988B0A
:1000D000E889EE2351F71982AAE3B0E0EAE3F0E001
:1000E00080818E7F8C93AAE3B0E0EAE3F0E0808128
:1000F0008D7F8C93ABE3B0E0EBE3F0E08081816037
:100100008C93ABE3B0E0EBE3F0E0808182608C9312
:10011000E7E3F0E08FEF8083A8E3B0E08981282F48
:1001200030E0CE010296FC01E20FF31F80818C9338
:10013000E9E3F0E08081882F90E081709070009773
:10014000D9F489818930A1F3A8E3B0E089818F5F78
:1001500089838981282F30E0CE010296FC01E20FCD
:10016000F31F80818C93E9E3F0E08081882F90E099
:10017000817090700097B9F3E9E3F0E08081869593
:10018000882F90E081709070009791F68981882384
:1001900079F2A8E3B0E08981815089838981282F91
:1001A00030E0CE010296FC01E20FF31F80818C93B8
:1001B000E9E3F0E080818695882F90E0817090706F
:0A01C0000097B1F3B5CFF894FFCF1C
:0A01CA003F065B4F666D7D077F6FF7
:00000001FF
