:100000000C942A000C94C8030C94FF030C9436043F
:100010000C9447000C9447000C9447000C94470044
:100020000C9447000C9447000C9447000C94470034
:100030000C9447000C9447000C9447000C94470024
:100040000C9467170C9447000C9447000C944700DD
:100050000C94470011241FBECFE5D8E0DEBFCDBF12
:1000600010E0A0E6B0E0EEEDFFE202C005900D92D8
:10007000A636B107D9F710E0A6E6B0E001C01D92A0
:10008000A637B107E1F70E94AE170C94ED170C9458
:100090000000DF93CF930F92CDB7DEB781E0898365
:1000A000AFE5B0E0EFE5F0E0808180688C93898176
:1000B0000F90CF91DF910895DF93CF930F92CDB73B
:1000C000DEB781E08983AFE5B0E0EFE5F0E0808165
:1000D00080688C9389810F90CF91DF910895DF9391
:1000E000CF93CDB7DEB72C970FB6F894DEBF0FBE17
:1000F000CDBF9C838B8381E08A838B819C81009719
:1001000009F452C1198219824AC18981882F90E06D
:100110009C01220F331F8B819C81FC01E20FF31F96
:1001200080818A3009F038C18981282F30E03C87EE
:100130002B878B859C858130910509F480C02B85A8
:100140003C852230310509F4EFC08B859C850097F2
:1001500009F020C1ABE5B0E0EBE5F0E08081806420
:100160008C938981882F90E09C01220F331F8B8113
:100170009C81FC01E20FF31F8181282F30E03A8738
:10018000298789859A8584319105B1F029853A8539
:100190002531310534F489859A858C309105E1F15A
:1001A0004BC029853A852833310531F189859A85F7
:1001B0008935910589F040C0A5E5B0E0E5E5F0E0BE
:1001C00080818E7F8C93A5E5B0E0E5E5F0E080814D
:1001D0008D7F8C931A82E0C0A5E5B0E0E5E5F0E004
:1001E000808181608C93A5E5B0E0E5E5F0E0808159
:1001F0008D7F8C931A82D0C0A5E5B0E0E5E5F0E0F4
:1002000080818E7F8C93A5E5B0E0E5E5F0E080810C
:1002100082608C931A82C0C0A5E5B0E0E5E5F0E00D
:10022000808181608C93A5E5B0E0E5E5F0E0808118
:1002300082608C931A82B0C083E08A83ADC0ABE544
:10024000B0E0EBE5F0E0808180688C938981882FB5
:1002500090E09C01220F331F8B819C81FC01E20FF7
:10026000F31F8181282F30E038872F838F81988575
:1002700084319105B1F02F8138852531310534F471
:100280008F8198858C309105E1F14BC02F813885A5
:100290002833310531F18F8198858935910589F0B1
:1002A00040C0A5E5B0E0E5E5F0E080818B7F8C9370
:1002B000A5E5B0E0E5E5F0E08081877F8C931A82C8
:1002C0006BC0A5E5B0E0E5E5F0E0808184608C934B
:1002D000A5E5B0E0E5E5F0E08081877F8C931A82A8
:1002E0005BC0A5E5B0E0E5E5F0E080818B7F8C9315
:1002F000A5E5B0E0E5E5F0E0808188608C931A82A6
:100300004BC0A5E5B0E0E5E5F0E0808184608C932A
:10031000A5E5B0E0E5E5F0E0808188608C931A8285
:100320003BC083E08A8338C0ABE5B0E0EBE5F0E0AA
:10033000808180628C938981882F90E09C01220FBC
:10034000331F8B819C81FC01E20FF31F8181282FD9
:1003500030E03E832D838D819E818C30910571F03C
:100360002D813E812833310591F4A4E5B0E0E4E528
:10037000F0E080818F7B8C931A820EC0A4E5B0E000
:10038000E4E5F0E0808180648C931A8205C083E00C
:100390008A8302C083E08A8389818F5F8983898110
:1003A000833008F4B2CE02C082E08A838A812C9620
:1003B0000FB6F894DEBF0FBECDBFCF91DF91089589
:1003C000DF93CF93CDB7DEB72B970FB6F894DEBF90
:1003D0000FBECDBF8A836B8381E089838A81282FFA
:1003E00030E03B872A878A859B858130910509F417
:1003F00075C02A853B852230310509F4D9C08A852C
:100400009B85009709F0FFC0ABE5B0E0EBE5F0E0BD
:10041000808180648C938B81282F30E039872887F6
:100420008885998584319105B1F0288539852531F4
:10043000310534F4888599858C309105E1F14BC004
:10044000288539852833310531F1888599858935A5
:10045000910589F040C0A5E5B0E0E5E5F0E08081D8
:100460008E7F8C93A5E5B0E0E5E5F0E080818D7F9F
:100470008C931982CAC0A5E5B0E0E5E5F0E0808183
:1004800081608C93A5E5B0E0E5E5F0E080818D7FAB
:100490008C931982BAC0A5E5B0E0E5E5F0E0808173
:1004A0008E7F8C93A5E5B0E0E5E5F0E08081826089
:1004B0008C931982AAC0A5E5B0E0E5E5F0E0808163
:1004C00081608C93A5E5B0E0E5E5F0E08081826095
:1004D0008C9319829AC083E0898397C0ABE5B0E022
:1004E000EBE5F0E0808180688C938B81282F30E0F1
:1004F0003F832E838E819F8184319105B1F02E81BF
:100500003F812531310534F48E819F818C309105F6
:10051000E1F14BC02E813F812833310531F18E81CD
:100520009F818935910589F040C0A5E5B0E0E5E5FA
:10053000F0E080818B7F8C93A5E5B0E0E5E5F0E00D
:100540008081877F8C93198260C0A5E5B0E0E5E5E6
:10055000F0E0808184608C93A5E5B0E0E5E5F0E013
:100560008081877F8C93198250C0A5E5B0E0E5E5D6
:10057000F0E080818B7F8C93A5E5B0E0E5E5F0E0CD
:10058000808188608C93198240C0A5E5B0E0E5E5E4
:10059000F0E0808184608C93A5E5B0E0E5E5F0E0D3
:1005A000808188608C93198230C083E089832DC05C
:1005B000ABE5B0E0EBE5F0E0808180628C938B816D
:1005C000282F30E03D832C838C819D818C309105D8
:1005D00071F02C813D812833310591F4A4E5B0E020
:1005E000E4E5F0E080818F7B8C9319820EC0A4E556
:1005F000B0E0E4E5F0E0808180648C93198205C06E
:1006000083E0898302C083E0898389812B960FB6BA
:10061000F894DEBF0FBECDBFCF91DF910895DF9379
:10062000CF9300D000D0CDB7DEB78A8381E0898335
:100630008A81282F30E03C832B838B819C81813001
:10064000910591F02B813C8122303105B1F08B81F5
:100650009C810097D9F4ABE5B0E0EBE5F0E0808158
:1006600080648C93198214C0ABE5B0E0EBE5F0E058
:10067000808180688C9319820BC0ABE5B0E0EBE51C
:10068000F0E0808180628C93198202C083E08983CC
:1006900089810F900F900F900F90CF91DF91089567
:1006A000DF93CF9300D000D0CDB7DEB78A8381E04F
:1006B00089838A81282F30E03C832B838B819C8126
:1006C0008130910591F02B813C8122303105B1F0D0
:1006D0008B819C810097D9F4ABE5B0E0EBE5F0E0CD
:1006E00080818F7B8C93198214C0ABE5B0E0EBE581
:1006F000F0E080818F778C9319820BC0ABE5B0E07E
:10070000EBE5F0E080818F7D8C93198202C083E05D
:10071000898389810F900F900F900F90CF91DF9177
:100720000895DF93CF9300D000D000D0CDB7DEB7CF
:100730009B838A837D836C834E8381E089838A8156
:100740009B810097C9F08E81882F90E02A813B81A0
:10075000880F991FFC01EA59FF4F318320838E8156
:10076000882F90E0880F991FFC01E459FF4F8C817E
:100770009D819183808302C082E08983898126964E
:100780000FB6F894DEBF0FBECDBFCF91DF910895B5
:100790001F920F920FB60F9211242F933F934F93F6
:1007A0005F936F937F938F939F93AF93BF93EF93D9
:1007B000FF93DF93CF93CDB7DEB780916600909122
:1007C0006700009749F0E0916600F0916700809122
:1007D0006C0090916D000995CF91DF91FF91EF91A1
:1007E000BF91AF919F918F917F916F915F914F9149
:1007F0003F912F910F900FBE0F901F9018951F9251
:100800000F920FB60F9211242F933F934F935F9344
:100810006F937F938F939F93AF93BF93EF93FF93C8
:10082000DF93CF93CDB7DEB78091680090916900D8
:10083000009749F0E0916800F091690080916E00A6
:1008400090916F000995CF91DF91FF91EF91BF914A
:10085000AF919F918F917F916F915F914F913F9158
:100860002F910F900FBE0F901F9018951F920F920F
:100870000FB60F9211242F933F934F935F936F9373
:100880007F938F939F93AF93BF93EF93FF93DF93E8
:10089000CF93CDB7DEB780916A0090916B0000973F
:1008A00049F0E0916A00F0916B00809170009091A6
:1008B00071000995CF91DF91FF91EF91BF91AF91B9
:1008C0009F918F917F916F915F914F913F912F9168
:1008D0000F900FBE0F901F901895DF93CF930F923C
:1008E000CDB7DEB781E08983EAE3F0E08CED808369
:1008F000E7E3F0E08DEE8083E4E3F0E08BED8083CE
:10090000E1E3F0E08FEE8083EBE3F0E085EF8083BE
:10091000E8E3F0E08FEA8083E5E3F0E087EF8083AF
:10092000E2E3F0E08BEA8083198289810F90CF9116
:10093000DF910895DF93CF93CDB7DEB72E970FB633
:10094000F894DEBF0FBECDBF8A836B834C8381E0FA
:1009500089838A81843008F0FFC38B81883008F056
:10096000FBC38A81282F30E03E872D878D859E85A9
:100970008130910509F40DC12D853E852230310568
:100980002CF48D859E85009771F0E4C32D853E85FE
:100990002230310509F4F3C18D859E8583309105A0
:1009A00009F4E3C2D7C38B81282F30E03C872B8723
:1009B0008B859C858330910509F46AC02B853C8525
:1009C0002430310584F48B859C8581309105A1F11B
:1009D0002B853C85223031050CF043C08B859C85EE
:1009E0000097D1F0B7C32B853C852530310509F43C
:1009F00081C08B859C85853091050CF462C02B8568
:100A00003C852630310509F490C08B859C85873064
:100A1000910509F4A6C09EC3AAE3B0E0EAE3F0E0C2
:100A200080818E7F8C93AAE3B0E0EAE3F0E09081CE
:100A30008C81892B8C938EC3AAE3B0E0EAE3F0E0CB
:100A400080818D7F8C93AAE3B0E0EAE3F0E08081BF
:100A5000282F8C81882F90E0880F991F822B8C93F0
:100A600079C3AAE3B0E0EAE3F0E080818B7F8C9366
:100A7000AAE3B0E0EAE3F0E08081282F8C81882FA0
:100A800090E0880F991F880F991F822B8C9362C367
:100A9000AAE3B0E0EAE3F0E08081877F8C93AAE3E9
:100AA000B0E0EAE3F0E08081282F8C81882F90E08D
:100AB000880F991F880F991F880F991F822B8C937D
:100AC00049C3AAE3B0E0EAE3F0E080818F7E8C9333
:100AD000AAE3B0E0EAE3F0E08081282F8C81882F40
:100AE00090E082959295907F9827807F9827822B1F
:100AF0008C9330C3AAE3B0E0EAE3F0E080818F7D1D
:100B00008C93AAE3B0E0EAE3F0E08081282F8C81A7
:100B1000882F90E0880F991F82959295907F982753
:100B2000807F9827822B8C9315C3AAE3B0E0EAE379
:100B3000F0E080818F7B8C93AAE3B0E0EAE3F0E001
:100B40008081282F8C81882F90E0002496958795AE
:100B50000794969587950794982F802D822B8C93D8
:100B6000F9C2AAE3B0E0EAE3F0E080818F778C93EA
:100B7000AAE3B0E0EAE3F0E08081282F8C81882F9F
:100B800090E09695982F882797958795822B8C9340
:100B9000E1C28B81282F30E03A87298789859A85A1
:100BA0008330910509F46AC029853A8524303105DE
:100BB00084F489859A8581309105A1F129853A854A
:100BC000223031050CF043C089859A850097D1F019
:100BD000C1C229853A852530310509F481C089854E
:100BE0009A85853091050CF462C029853A852630B6
:100BF000310509F490C089859A858730910509F4FB
:100C0000A6C0A8C2A7E3B0E0E7E3F0E080818E7F52
:100C10008C93A7E3B0E0E7E3F0E090818C81892B2F
:100C20008C9398C2A7E3B0E0E7E3F0E080818D7F8A
:100C30008C93A7E3B0E0E7E3F0E08081282F8C817C
:100C4000882F90E0880F991F822B8C9383C2A7E393
:100C5000B0E0E7E3F0E080818B7F8C93A7E3B0E026
:100C6000E7E3F0E08081282F8C81882F90E0880FC7
:100C7000991F880F991F822B8C936CC2A7E3B0E059
:100C8000E7E3F0E08081877F8C93A7E3B0E0E7E3C0
:100C9000F0E08081282F8C81882F90E0880F991FA9
:100CA000880F991F880F991F822B8C9353C2A7E33B
:100CB000B0E0E7E3F0E080818F7E8C93A7E3B0E0C3
:100CC000E7E3F0E08081282F8C81882F90E08295E7
:100CD0009295907F9827807F9827822B8C933AC299
:100CE000A7E3B0E0E7E3F0E080818F7D8C93A7E39A
:100CF000B0E0E7E3F0E08081282F8C81882F90E03E
:100D0000880F991F82959295907F9827807F9827CA
:100D1000822B8C931FC2A7E3B0E0E7E3F0E0808171
:100D20008F7B8C93A7E3B0E0E7E3F0E08081282F8E
:100D30008C81882F90E0002496958795079496954E
:100D400087950794982F802D822B8C9303C2A7E35D
:100D5000B0E0E7E3F0E080818F778C93A7E3B0E029
:100D6000E7E3F0E08081282F8C81882F90E0969532
:100D7000982F882797958795822B8C93EBC18B8131
:100D8000282F30E038872F838F8198858330910515
:100D900009F46AC02F8138852430310584F48F81AD
:100DA000988581309105A1F12F8138852230310558
:100DB0000CF043C08F8198850097D1F0CBC12F8173
:100DC00038852530310509F481C08F8198858530BB
:100DD00091050CF462C02F8138852630310509F465
:100DE00090C08F8198858730910509F4A6C0B2C163
:100DF000A4E3B0E0E4E3F0E080818E7F8C93A4E391
:100E0000B0E0E4E3F0E090818C81892B8C93A2C167
:100E1000A4E3B0E0E4E3F0E080818D7F8C93A4E371
:100E2000B0E0E4E3F0E08081282F8C81882F90E00F
:100E3000880F991F822B8C938DC1A4E3B0E0E4E36B
:100E4000F0E080818B7F8C93A4E3B0E0E4E3F0E0FA
:100E50008081282F8C81882F90E0880F991F880F20
:100E6000991F822B8C9376C1A4E3B0E0E4E3F0E019
:100E70008081877F8C93A4E3B0E0E4E3F0E080819D
:100E8000282F8C81882F90E0880F991F880F991F39
:100E9000880F991F822B8C935DC1A4E3B0E0E4E33B
:100EA000F0E080818F7E8C93A4E3B0E0E4E3F0E097
:100EB0008081282F8C81882F90E082959295907F59
:100EC0009827807F9827822B8C9344C1A4E3B0E0BD
:100ED000E4E3F0E080818F7D8C93A4E3B0E0E4E371
:100EE000F0E08081282F8C81882F90E0880F991F57
:100EF00082959295907F9827807F9827822B8C935C
:100F000029C1A4E3B0E0E4E3F0E080818F7B8C931F
:100F1000A4E3B0E0E4E3F0E08081282F8C81882F07
:100F200090E0002496958795079496958795079469
:100F3000982F802D822B8C930DC1A4E3B0E0E4E3C5
:100F4000F0E080818F778C93A4E3B0E0E4E3F0E0FD
:100F50008081282F8C81882F90E09695982F882764
:100F600097958795822B8C93F5C08B81282F30E045
:100F70003E832D838D819E818330910509F46AC063
:100F80002D813E812430310584F48D819E81813014
:100F90009105A1F12D813E81223031050CF043C035
:100FA0008D819E810097D1F0D5C02D813E81253065
:100FB000310509F481C08D819E81853091050CF445
:100FC00062C02D813E812630310509F490C08D81AB
:100FD0009E818730910509F4A6C0BCC0A1E3B0E0B2
:100FE000E1E3F0E080818E7F8C93A1E3B0E0E1E368
:100FF000F0E090818C81892B8C93ACC0A1E3B0E0B0
:10100000E1E3F0E080818D7F8C93A1E3B0E0E1E348
:10101000F0E08081282F8C81882F90E0880F991F25
:10102000822B8C9397C0A1E3B0E0E1E3F0E08081F4
:101030008B7F8C93A1E3B0E0E1E3F0E08081282F87
:101040008C81882F90E0880F991F880F991F822B21
:101050008C9380C0A1E3B0E0E1E3F0E08081877F82
:101060008C93A1E3B0E0E1E3F0E08081282F8C8154
:10107000882F90E0880F991F880F991F880F991F5C
:10108000822B8C9367C0A1E3B0E0E1E3F0E08081C4
:101090008F7E8C93A1E3B0E0E1E3F0E08081282F24
:1010A0008C81882F90E082959295907F9827807F01
:1010B0009827822B8C934EC0A1E3B0E0E1E3F0E0EF
:1010C00080818F7D8C93A1E3B0E0E1E3F0E080814B
:1010D000282F8C81882F90E0880F991F82959295F8
:1010E000907F9827807F9827822B8C9333C0A1E331
:1010F000B0E0E1E3F0E080818F7B8C93A1E3B0E08E
:10110000E1E3F0E08081282F8C81882F90E000249B
:10111000969587950794969587950794982F802D97
:10112000822B8C9317C0A1E3B0E0E1E3F0E0808173
:101130008F778C93A1E3B0E0E1E3F0E08081282F8A
:101140008C81882F90E09695982F88279795879582
:10115000822B8C93198202C083E0898389812E9629
:101160000FB6F894DEBF0FBECDBFCF91DF910895CB
:10117000DF93CF93CDB7DEB72E970FB6F894DEBFCF
:101180000FBECDBF8A836B834C8381E089838A81C4
:10119000843008F0FFC38B81883008F0FBC38A815C
:1011A000282F30E03E872D878D859E8581309105E3
:1011B00009F40DC12D853E85223031052CF48D8535
:1011C0009E85009771F0E4C32D853E852230310560
:1011D00009F4F3C18D859E858330910509F4E3C23E
:1011E000D7C38B81282F30E03C872B878B859C854C
:1011F0008330910509F46AC02B853C852430310584
:1012000084F48B859C8581309105A1F12B853C85EB
:10121000223031050CF043C08B859C850097D1F0BE
:10122000B7C32B853C852530310509F481C08B85FA
:101230009C85853091050CF462C02B853C85263059
:10124000310509F490C08B859C858730910509F4A0
:10125000A6C09EC3ABE3B0E0EBE3F0E080818E7FFD
:101260008C93ABE3B0E0EBE3F0E090818C81892BD1
:101270008C938EC3ABE3B0E0EBE3F0E080818D7F35
:101280008C93ABE3B0E0EBE3F0E08081282F8C811E
:10129000882F90E0880F991F822B8C9379C3ABE342
:1012A000B0E0EBE3F0E080818B7F8C93ABE3B0E0C8
:1012B000EBE3F0E08081282F8C81882F90E0880F6D
:1012C000991F880F991F822B8C9362C3ABE3B0E008
:1012D000EBE3F0E08081877F8C93ABE3B0E0EBE35E
:1012E000F0E08081282F8C81882F90E0880F991F53
:1012F000880F991F880F991F822B8C9349C3ABE3EA
:10130000B0E0EBE3F0E080818F7E8C93ABE3B0E064
:10131000EBE3F0E08081282F8C81882F90E082958C
:101320009295907F9827807F9827822B8C9330C34B
:10133000ABE3B0E0EBE3F0E080818F7D8C93ABE337
:10134000B0E0EBE3F0E08081282F8C81882F90E0E3
:10135000880F991F82959295907F9827807F982774
:10136000822B8C9315C3ABE3B0E0EBE3F0E080811C
:101370008F7B8C93ABE3B0E0EBE3F0E08081282F30
:101380008C81882F90E000249695879507949695F8
:1013900087950794982F802D822B8C93F9C2ABE30D
:1013A000B0E0EBE3F0E080818F778C93ABE3B0E0CB
:1013B000EBE3F0E08081282F8C81882F90E09695D8
:1013C000982F882797958795822B8C93E1C28B81E4
:1013D000282F30E03A87298789859A8583309105BF
:1013E00009F46AC029853A852430310584F4898559
:1013F0009A8581309105A1F129853A852230310500
:101400000CF043C089859A850097D1F0C1C2298527
:101410003A852530310509F481C089859A85853062
:1014200091050CF462C029853A852630310509F40E
:1014300090C089859A858730910509F4A6C0A8C215
:10144000A8E3B0E0E8E3F0E080818E7F8C93A8E32E
:10145000B0E0E8E3F0E090818C81892B8C9398C216
:10146000A8E3B0E0E8E3F0E080818D7F8C93A8E30F
:10147000B0E0E8E3F0E08081282F8C81882F90E0B5
:10148000880F991F822B8C9383C2A8E3B0E0E8E316
:10149000F0E080818B7F8C93A8E3B0E0E8E3F0E09C
:1014A0008081282F8C81882F90E0880F991F880FCA
:1014B000991F822B8C936CC2A8E3B0E0E8E3F0E0C4
:1014C0008081877F8C93A8E3B0E0E8E3F0E080813F
:1014D000282F8C81882F90E0880F991F880F991FE3
:1014E000880F991F822B8C9353C2A8E3B0E0E8E3E6
:1014F000F0E080818F7E8C93A8E3B0E0E8E3F0E039
:101500008081282F8C81882F90E082959295907F02
:101510009827807F9827822B8C933AC2A8E3B0E06B
:10152000E8E3F0E080818F7D8C93A8E3B0E0E8E30E
:10153000F0E08081282F8C81882F90E0880F991F00
:1015400082959295907F9827807F9827822B8C9305
:101550001FC2A8E3B0E0E8E3F0E080818F7B8C93CA
:10156000A8E3B0E0E8E3F0E08081282F8C81882FA9
:1015700090E0002496958795079496958795079413
:10158000982F802D822B8C9303C2A8E3B0E0E8E370
:10159000F0E080818F778C93A8E3B0E0E8E3F0E09F
:1015A0008081282F8C81882F90E09695982F88270E
:1015B00097958795822B8C93EBC18B81282F30E0F8
:1015C00038872F838F8198858330910509F46AC00D
:1015D0002F8138852430310584F48F8198858130BE
:1015E0009105A1F12F813885223031050CF043C0DF
:1015F0008F8198850097D1F0CBC12F813885253018
:10160000310509F481C08F819885853091050CF4EE
:1016100062C02F8138852630310509F490C08F8152
:1016200098858730910509F4A6C0B2C1A5E3B0E062
:10163000E5E3F0E080818E7F8C93A5E3B0E0E5E305
:10164000F0E090818C81892B8C93A2C1A5E3B0E05E
:10165000E5E3F0E080818D7F8C93A5E3B0E0E5E3E6
:10166000F0E08081282F8C81882F90E0880F991FCF
:10167000822B8C938DC1A5E3B0E0E5E3F0E080819F
:101680008B7F8C93A5E3B0E0E5E3F0E08081282F29
:101690008C81882F90E0880F991F880F991F822BCB
:1016A0008C9376C1A5E3B0E0E5E3F0E08081877F2D
:1016B0008C93A5E3B0E0E5E3F0E08081282F8C81F6
:1016C000882F90E0880F991F880F991F880F991F06
:1016D000822B8C935DC1A5E3B0E0E5E3F0E080816F
:1016E0008F7E8C93A5E3B0E0E5E3F0E08081282FC6
:1016F0008C81882F90E082959295907F9827807FAB
:101700009827822B8C9344C1A5E3B0E0E5E3F0E099
:1017100080818F7D8C93A5E3B0E0E5E3F0E08081EC
:10172000282F8C81882F90E0880F991F82959295A1
:10173000907F9827807F9827822B8C9329C1A5E3DF
:10174000B0E0E5E3F0E080818F7B8C93A5E3B0E02F
:10175000E5E3F0E08081282F8C81882F90E0002441
:10176000969587950794969587950794982F802D41
:10177000822B8C930DC1A5E3B0E0E5E3F0E080811E
:101780008F778C93A5E3B0E0E5E3F0E08081282F2C
:101790008C81882F90E09695982F8827979587952C
:1017A000822B8C93F5C08B81282F30E03E832D83D4
:1017B0008D819E818330910509F46AC02D813E811F
:1017C0002430310584F48D819E8181309105A1F111
:1017D0002D813E81223031050CF043C08D819E81E8
:1017E0000097D1F0D5C02D813E812530310509F417
:1017F00081C08D819E81853091050CF462C02D8160
:101800003E812630310509F490C08D819E8187305C
:10181000910509F4A6C0BCC0A2E3B0E0E2E3F0E0A9
:1018200080818E7F8C93A2E3B0E0E2E3F0E09081D0
:101830008C81892B8C93ACC0A2E3B0E0E2E3F0E0B2
:1018400080818D7F8C93A2E3B0E0E2E3F0E08081C1
:10185000282F8C81882F90E0880F991F822B8C93E2
:1018600097C0A2E3B0E0E2E3F0E080818B7F8C934D
:10187000A2E3B0E0E2E3F0E08081282F8C81882FA2
:1018800090E0880F991F880F991F822B8C9380C03E
:10189000A2E3B0E0E2E3F0E08081877F8C93A2E3F3
:1018A000B0E0E2E3F0E08081282F8C81882F90E087
:1018B000880F991F880F991F880F991F822B8C936F
:1018C00067C0A2E3B0E0E2E3F0E080818F7E8C931A
:1018D000A2E3B0E0E2E3F0E08081282F8C81882F42
:1018E00090E082959295907F9827807F9827822B11
:1018F0008C934EC0A2E3B0E0E2E3F0E080818F7D04
:101900008C93A2E3B0E0E2E3F0E08081282F8C81A9
:10191000882F90E0880F991F82959295907F982745
:10192000807F9827822B8C9333C0A2E3B0E0E2E360
:10193000F0E080818F7B8C93A2E3B0E0E2E3F0E003
:101940008081282F8C81882F90E0002496958795A0
:101950000794969587950794982F802D822B8C93CA
:1019600017C0A2E3B0E0E2E3F0E080818F778C93D0
:10197000A2E3B0E0E2E3F0E08081282F8C81882FA1
:1019800090E09695982F882797958795822B8C9332
:10199000198202C083E0898389812E960FB6F8945C
:1019A000DEBF0FBECDBFCF91DF910895DF93CF9300
:1019B000CDB7DEB72D970FB6F894DEBF0FBECDBF03
:1019C0008A836B8381E089838A81843008F01FC217
:1019D0008B81883008F01BC28A81282F30E03D8738
:1019E0002C878C859D858130910509F495C02C85C7
:1019F0003D85223031052CF48C859D85009771F052
:101A000004C22C853D852230310509F403C18C8543
:101A10009D858330910509F47BC1F7C18B81282F07
:101A200030E03B872A878A859B858330910509F4BE
:101A300046C02A853B85243031057CF48A859B8508
:101A40008130910551F12A853B852230310574F5AD
:101A50008A859B850097C1F0D8C12A853B852530B2
:101A6000310509F43EC08A859B858530910584F156
:101A70002A853B8526303105E9F18A859B858730AB
:101A8000910509F440C0C1C1ABE3B0E0EBE3F0E085
:101A9000908181E089278C93B8C1ABE3B0E0EBE3A0
:101AA000F0E0908182E089278C93AFC1ABE3B0E096
:101AB000EBE3F0E0908184E089278C93A6C1ABE34F
:101AC000B0E0EBE3F0E0908188E089278C939DC142
:101AD000ABE3B0E0EBE3F0E0908180E189278C9309
:101AE00094C1ABE3B0E0EBE3F0E0908180E28927C2
:101AF0008C938BC1ABE3B0E0EBE3F0E0908180E44A
:101B000089278C9382C1ABE3B0E0EBE3F0E09081F6
:101B100080E889278C9379C18B81282F30E0398721
:101B20002887888599858330910509F446C02885E2
:101B30003985243031057CF488859985813091057B
:101B400051F1288539852230310574F588859985CC
:101B50000097C1F05AC1288539852530310509F42F
:101B60003EC0888599858530910584F12885398521
:101B700026303105E9F1888599858730910509F48A
:101B800040C043C1A8E3B0E0E8E3F0E0908181E029
:101B900089278C933AC1A8E3B0E0E8E3F0E09081B4
:101BA00082E089278C9331C1A8E3B0E0E8E3F0E05C
:101BB000908184E089278C9328C1A8E3B0E0E8E312
:101BC000F0E0908188E089278C931FC1A8E3B0E002
:101BD000E8E3F0E0908180E189278C9316C1A8E3C7
:101BE000B0E0E8E3F0E0908180E289278C930DC1BA
:101BF000A8E3B0E0E8E3F0E0908180E489278C93EB
:101C000004C1A8E3B0E0E8E3F0E0908180E8892730
:101C10008C93FBC08B81282F30E03F832E838E81F5
:101C20009F818330910509F446C02E813F81243085
:101C300031057CF48E819F818130910551F12E8197
:101C40003F812230310574F58E819F810097C1F06C
:101C5000DCC02E813F812530310509F43EC08E81E4
:101C60009F818530910584F12E813F812630310599
:101C7000E9F18E819F818730910509F440C0C5C08C
:101C8000A5E3B0E0E5E3F0E0908181E089278C9363
:101C9000BCC0A5E3B0E0E5E3F0E0908182E08927F5
:101CA0008C93B3C0A5E3B0E0E5E3F0E0908184E07D
:101CB00089278C93AAC0A5E3B0E0E5E3F0E090812A
:101CC00088E089278C93A1C0A5E3B0E0E5E3F0E0CC
:101CD000908180E189278C9398C0A5E3B0E0E5E38B
:101CE000F0E0908180E289278C938FC0A5E3B0E07B
:101CF000E5E3F0E0908180E489278C9386C0A5E33A
:101D0000B0E0E5E3F0E0908180E889278C937DC026
:101D10008B81282F30E03D832C838C819D81833003
:101D2000910509F446C02C813D81243031057CF4B5
:101D30008C819D818130910551F12C813D81223032
:101D4000310574F58C819D810097C1F05EC02C81B6
:101D50003D812530310509F43EC08C819D8185305F
:101D6000910584F12C813D8126303105E9F18C818A
:101D70009D818730910509F440C047C0A2E3B0E0DF
:101D8000E2E3F0E0908181E089278C933EC0A2E3FA
:101D9000B0E0E2E3F0E0908182E089278C9335C0E7
:101DA000A2E3B0E0E2E3F0E0908184E089278C9345
:101DB0002CC0A2E3B0E0E2E3F0E0908188E0892764
:101DC0008C9323C0A2E3B0E0E2E3F0E0908180E1F5
:101DD00089278C931AC0A2E3B0E0E2E3F0E090819F
:101DE00080E289278C9311C0A2E3B0E0E2E3F0E047
:101DF000908180E489278C9308C0A2E3B0E0E2E3FD
:101E0000F0E0908180E889278C93198202C083E0FA
:101E1000898389812D960FB6F894DEBF0FBECDBFA2
:101E2000CF91DF910895DF93CF93CDB7DEB72F9792
:101E30000FB6F894DEBF0FBECDBF8A836B835D8380
:101E40004C8381E089838A81843008F047C28B818A
:101E5000883008F043C28A81282F30E03F872E87E0
:101E60008E859F858130910509F49FC02E853F8521
:101E7000223031052CF48E859F85009771F02CC29D
:101E80002E853F852230310509F417C18E859F8547
:101E90008330910509F499C11FC28B81282F30E04E
:101EA0003D872C878C859D858330910509F447C03B
:101EB0002C853D85243031057CF48C859D858130D1
:101EC000910551F12C853D852230310574F58C85C5
:101ED0009D850097C9F000C22C853D8525303105D0
:101EE00009F442C08C859D85853091059CF12C8537
:101EF0003D852630310509F442C08C859D858730AB
:101F0000910509F448C0E8C1E9E3F0E080818170FF
:101F1000EC81FD818083E0C1E9E3F0E0808186957A
:101F20008170EC81FD818083D7C1E9E3F0E080819D
:101F3000869586958170EC81FD818083CDC1E9E332
:101F4000F0E080818695869586958170EC81FD8193
:101F50008083C2C1E9E3F0E0808182958F70817057
:101F6000EC81FD818083B8C1E9E3F0E08081829556
:101F7000869587708170EC81FD818083ADC1E9E336
:101F8000F0E0808182958695869583708170EC81E2
:101F9000FD818083A1C1E9E3F0E08081881F88276B
:101FA000881FEC81FD81808397C18B81282F30E0D1
:101FB0003B872A878A859B858330910509F447C032
:101FC0002A853B85243031057CF48A859B858130C8
:101FD000910551F12A853B852230310574F58A85BA
:101FE0009B850097C9F078C12A853B85253031054E
:101FF00009F442C08A859B85853091059CF12A852C
:102000003B852630310509F442C08A859B8587309F
:10201000910509F448C060C1E6E3F0E08081817079
:10202000EC81FD81808358C1E6E3F0E080818695F4
:102030008170EC81FD8180834FC1E6E3F0E0808117
:10204000869586958170EC81FD81808345C1E6E3AC
:10205000F0E080818695869586958170EC81FD8182
:1020600080833AC1E6E3F0E0808182958F708170D1
:10207000EC81FD81808330C1E6E3F0E080818295D0
:10208000869587708170EC81FD81808325C1E6E3B0
:10209000F0E0808182958695869583708170EC81D1
:1020A000FD81808319C1E6E3F0E08081881F8827E5
:1020B000881FEC81FD8180830FC18B81282F30E048
:1020C00039872887888599858330910509F447C029
:1020D00028853985243031057CF4888599858130BF
:1020E000910551F1288539852230310574F58885AF
:1020F00099850097C9F0F0C02885398525303105CC
:1021000009F442C088859985853091059CF1288520
:1021100039852630310509F442C088859985873094
:10212000910509F448C0D8C0E3E3F0E080818170F4
:10213000EC81FD818083D0C0E3E3F0E0808186956F
:102140008170EC81FD818083C7C0E3E3F0E0808192
:10215000869586958170EC81FD818083BDC0E3E327
:10216000F0E080818695869586958170EC81FD8171
:102170008083B2C0E3E3F0E0808182958F7081704C
:10218000EC81FD818083A8C0E3E3F0E0808182954B
:10219000869587708170EC81FD8180839DC0E3E32B
:1021A000F0E0808182958695869583708170EC81C0
:1021B000FD81808391C0E3E3F0E08081881F882760
:1021C000881FEC81FD81808387C08B81282F30E0C0
:1021D0003F832E838E819F818330910509F447C010
:1021E0002E813F81243031057CF48E819F818130A6
:1021F000910551F12E813F812230310574F58E8198
:102200009F810097C9F068C02E813F81253031053C
:1022100009F442C08E819F81853091059CF12E8109
:102220003F812630310509F442C08E819F8187307D
:10223000910509F448C050C0E0E3F0E0808181706E
:10224000EC81FD81808348C0E0E3F0E080818695E9
:102250008170EC81FD8180833FC0E0E3F0E080810C
:10226000869586958170EC81FD81808335C0E0E3A1
:10227000F0E080818695869586958170EC81FD8160
:1022800080832AC0E0E3F0E0808182958F708170C6
:10229000EC81FD81808320C0E0E3F0E080818295C5
:1022A000869587708170EC81FD81808315C0E0E3A5
:1022B000F0E0808182958695869583708170EC81AF
:1022C000FD81808309C0E0E3F0E08081881F8827DA
:1022D000881FEC81FD818083198202C083E089839D
:1022E00089812F960FB6F894DEBF0FBECDBFCF9178
:1022F000DF910895DF93CF9300D000D00F92CDB738
:10230000DEB78A836B8381E089838A818430A0F57C
:102310008A81282F30E03D832C838C819D81813000
:102320009105D1F02C813D81223031052CF48C8136
:102330009D81009761F01EC02C813D8122303105C6
:1023400081F08C819D818330910581F013C0EAE397
:10235000F0E08B8180830EC0E7E3F0E08B81808327
:1023600009C0E4E3F0E08B81808304C0E4E3F0E0A3
:102370008B818083198202C083E0898389810F90D9
:102380000F900F900F900F90CF91DF910895DF93F2
:10239000CF9300D000D00F92CDB7DEB78A836B8386
:1023A00081E089838A818430A0F58A81282F30E0FA
:1023B0003D832C838C819D8181309105D1F02C81CE
:1023C0003D81223031052CF48C819D81009761F094
:1023D0001EC02C813D812230310581F08C819D8190
:1023E0008330910581F013C0EBE3F0E08B818083B3
:1023F0000EC0E8E3F0E08B81808309C0E5E3F0E004
:102400008B81808304C0E2E3F0E08B8180831982BA
:1024100002C083E0898389810F900F900F900F9005
:102420000F90CF91DF910895DF93CF9300D000D02C
:1024300000D0CDB7DEB78A837C836B8381E089834C
:102440008A818430E0F58A81282F30E03E832D8315
:102450008D819E8181309105E1F02D813E81223078
:1024600031052CF48D819E81009761F026C02D816D
:102470003E8122303105A1F08D819E81833091050E
:10248000B1F01BC0E9E3F0E08081EB81FC81808347
:1024900014C0E6E3F0E08081EB81FC8180830DC015
:1024A000E3E3F0E08081EB81FC81808306C0E0E320
:1024B000F0E08081EB81FC818083198202C083E09F
:1024C0008983898126960FB6F894DEBF0FBECDBFF3
:1024D000CF91DF910895DF93CF9300D000D0CDB797
:1024E000DEB78A8381E089838A81843008F040C026
:1024F0008A81282F30E03C832B838B819C81813023
:102500009105E9F02B813C81223031052CF48B813F
:102510009C81009761F02AC02B813C8122303105DB
:10252000B1F08B819C8183309105C9F01FC0ABE372
:10253000B0E0EBE3F0E0808180958C9317C0A8E3D6
:10254000B0E0E8E3F0E0808180958C930FC0A5E3D4
:10255000B0E0E5E3F0E0808180958C9307C0A2E3D2
:10256000B0E0E2E3F0E0808180958C93198202C0B4
:1025700083E0898389810F900F900F900F90CF9106
:10258000DF910895DF93CF930F92CDB7DEB781E04F
:102590008983A7E2B0E0E7E2F0E0808180648C9379
:1025A000A7E2B0E0E7E2F0E080818F778C93A7E2CA
:1025B000B0E0E7E2F0E080818F7D8C93A6E2B0E0AE
:1025C000E6E2F0E0808181608C93A6E2B0E0E6E292
:1025D000F0E0808182608C93A6E2B0E0E6E2F0E079
:1025E000808184608C9389810F90CF91DF910895D1
:1025F000DF93CF9300D000D0CDB7DEB78A8381E0E0
:1026000089838A81282F30E03C832B838B819C81B6
:102610008D329105D1F02B813C812036310531F08E
:102620008B819C8182329105F9F02DC0A7E2B0E048
:10263000E7E2F0E080818F7B8C93A7E2B0E0E7E2F5
:10264000F0E080818F778C9320C0A7E2B0E0E7E2D2
:10265000F0E0808180648C93A7E2B0E0E7E2F0E0F4
:1026600080818F778C9311C0A7E2B0E0E7E2F0E0C1
:10267000808180648C93A7E2B0E0E7E2F0E08081A3
:1026800080688C9302C083E0898389810F900F90CA
:102690000F900F90CF91DF910895DF93CF9300D0EB
:1026A00000D0CDB7DEB78A8381E089838A81282F65
:1026B00030E03C832B838B819C81009769F02B81D8
:1026C0003C812130310581F4A7E2B0E0E7E2F0E09F
:1026D000808180628C930AC0A7E2B0E0E7E2F0E07C
:1026E00080818F7D8C9302C083E0898389810F90E4
:1026F0000F900F900F90CF91DF910895DF93CF93BC
:1027000000D000D0CDB7DEB78A8381E089838A818B
:10271000883008F46EC0A7E2B0E0E7E2F0E0808124
:10272000807E8C938A81282F30E03C832B838B81A1
:102730009C8183309105A9F12B813C8124303105A6
:102740005CF48B819C8181309105D9F02B813C8197
:1027500022303105F4F44FC08B819C818530910586
:1027600081F12B813C81253031051CF18B819C81CD
:102770008630910571F12B813C812730310589F13B
:102780003AC0A7E2B0E0E7E2F0E0808181608C939C
:1027900032C0A7E2B0E0E7E2F0E0808182608C9393
:1027A0002AC0A7E2B0E0E7E2F0E0808183608C938A
:1027B00022C0A7E2B0E0E7E2F0E0808184608C9381
:1027C0001AC0A7E2B0E0E7E2F0E0808185608C9378
:1027D00012C0A7E2B0E0E7E2F0E0808186608C936F
:1027E0000AC0A7E2B0E0E7E2F0E0808187608C9366
:1027F00002C083E0898389810F900F900F900F9022
:10280000CF91DF910895DF93CF930F92CDB7DEB7CD
:1028100081E08983A6E2B0E0E6E2F0E080818068B2
:102820008C9389810F90CF91DF910895DF93CF939F
:102830000F92CDB7DEB781E08983A6E2B0E0E6E291
:10284000F0E080818F778C9389810F90CF91DF9119
:102850000895DF93CF930F92CDB7DEB781E08983E0
:10286000A6E2B0E0E6E2F0E0808180648C938981AA
:102870000F90CF91DF910895DF93CF930F92CDB753
:10288000DEB781E08983A6E2B0E0E6E2F0E0808195
:1028900088608C9389810F90CF91DF910895DF93A9
:1028A000CF930F92CDB7DEB781E08983A6E2B0E087
:1028B000E6E2F0E08081877F8C9389810F90CF9151
:1028C000DF910895DF93CF9300D000D0CDB7DEB76E
:1028D0008A8381E089838A81282F30E03C832B839F
:1028E0008B819C818031910509F46BC02B813C81E7
:1028F000213131058CF48B819C8184309105A9F1C3
:102900002B813C812830310509F445C08B819C81A5
:1029100082309105A1F0ADC02B813C81203431057E
:1029200009F47BC08B819C818038910509F48BC0B0
:102930002B813C812032310509F459C09AC0A6E2AE
:10294000B0E0E6E2F0E0808181608C93A6E2B0E046
:10295000E6E2F0E080818D7F8C93A6E2B0E0E6E2D3
:10296000F0E080818B7F8C9386C0A6E2B0E0E6E247
:10297000F0E080818E7F8C93A6E2B0E0E6E2F0E0AA
:10298000808182608C93A6E2B0E0E6E2F0E0808194
:102990008B7F8C9370C0A6E2B0E0E6E2F0E080812D
:1029A00081608C93A6E2B0E0E6E2F0E08081826094
:1029B0008C93A6E2B0E0E6E2F0E080818B7F8C931E
:1029C0005AC0A6E2B0E0E6E2F0E080818E7F8C9310
:1029D000A6E2B0E0E6E2F0E080818D7F8C93A6E293
:1029E000B0E0E6E2F0E0808184608C9344C0A6E22F
:1029F000B0E0E6E2F0E0808181608C93A6E2B0E096
:102A0000E6E2F0E080818D7F8C93A6E2B0E0E6E222
:102A1000F0E0808184608C932EC0A6E2B0E0E6E214
:102A2000F0E080818E7F8C93A6E2B0E0E6E2F0E0F9
:102A3000808182608C93A6E2B0E0E6E2F0E08081E3
:102A400084608C9318C0A6E2B0E0E6E2F0E08081FA
:102A500081608C93A6E2B0E0E6E2F0E080818260E3
:102A60008C93A6E2B0E0E6E2F0E0808184608C9393
:102A700002C083E0898389810F900F900F900F909F
:102A8000CF91DF910895DF93CF930F92CDB7DEB74B
:102A900081E08983A6E2B0E0E6E2F0E080818F7D0C
:102AA0008C9389810F90CF91DF910895DF93CF931D
:102AB00000D000D0CDB7DEB78A8381E08983A6E25B
:102AC000B0E0E6E2F0E0808180628C938A81883019
:102AD00008F0E9C08A81282F30E03C832B838B816A
:102AE0009C818330910509F470C02B813C81243096
:102AF000310584F48B819C8181309105D1F12B814A
:102B00003C81223031050CF04AC08B819C810097BA
:102B1000D1F0CBC02B813C812530310509F481C037
:102B20008B819C81853091050CF465C02B813C81A3
:102B30002630310509F48BC08B819C81873091054B
:102B400009F49BC0B2C0A0E5B0E0E0E5F0E0808110
:102B50008F7D8C93A0E5B0E0E0E5F0E080818F7B95
:102B60008C93A0E5B0E0E0E5F0E080818F778C9376
:102B70009CC0A0E5B0E0E0E5F0E0808180628C934D
:102B8000A0E5B0E0E0E5F0E080818F7B8C93A0E5EC
:102B9000B0E0E0E5F0E080818F778C9386C0A0E51F
:102BA000B0E0E0E5F0E080818F7D8C93A0E5B0E0BF
:102BB000E0E5F0E0808180648C93A0E5B0E0E0E5A2
:102BC000F0E080818F778C9370C0A0E5B0E0E0E505
:102BD000F0E0808180628C93A0E5B0E0E0E5F0E079
:102BE000808180648C93A0E5B0E0E0E5F0E0808136
:102BF0008F778C935AC0A0E5B0E0E0E5F0E08081EB
:102C00008F7D8C93A0E5B0E0E0E5F0E080818F7BE4
:102C10008C93A0E5B0E0E0E5F0E0808180688C93E3
:102C200044C0A0E5B0E0E0E5F0E0808180628C93F4
:102C3000A0E5B0E0E0E5F0E080818F7B8C93A0E53B
:102C4000B0E0E0E5F0E0808180688C932EC0A0E5E4
:102C5000B0E0E0E5F0E080818F7D8C93A0E5B0E00E
:102C6000E0E5F0E0808180648C93A0E5B0E0E0E5F1
:102C7000F0E0808180688C9318C0A0E5B0E0E0E5CA
:102C8000F0E0808180628C93A0E5B0E0E0E5F0E0C8
:102C9000808180648C93A0E5B0E0E0E5F0E0808185
:102CA00080688C9302C083E0898389810F900F90A4
:102CB0000F900F90CF91DF910895DF93CF930F92F4
:102CC000CDB7DEB781E08983E6E2F0E080818295CE
:102CD0008F70882F90E0817090700097A9F3A6E222
:102CE000B0E0E6E2F0E0808180618C9389810F9012
:102CF000CF91DF910895DF93CF9300D000D00F9252
:102D0000CDB7DEB79B838A8381E089838A819B81EB
:102D1000009709F453C0E7E2F0E080818295869540
:102D20008770882F90E09C01217030703D832C8348
:102D30008C819D81009739F12C813D8121303105B5
:102D400009F03EC0E4E2F0E08081829586958695A8
:102D50008370882F90E0EA81FB8191838083EA81F0
:102D6000FB8120813181E5E2F0E08081882F90E0D5
:102D7000880F991F880F991F822B932BEA81FB8163
:102D8000918380831DC0E4E2F0E08081882F90E091
:102D9000EA81FB8191838083EA81FB8120813181FB
:102DA000E5E2F0E08081882F90E0982F8827822B41
:102DB000932BEA81FB819183808302C082E0898327
:102DC00089810F900F900F900F900F90CF91DF910E
:102DD0000895DF93CF9300D000D00F92CDB7DEB728
:102DE0009B838A8381E089838A819B810097E1F1BB
:102DF000E7E2F0E08081829586958770882F90E0E9
:102E00009C01217030703D832C838C819D810097C3
:102E100061F02C813D812130310541F5E5E2F0E0A2
:102E20008081EA81FB81808321C0E4E2F0E080813F
:102E300086958695EA81FB818083EA81FB8180818A
:102E4000282FE5E2F0E08081882F90E0002496951D
:102E500087950794969587950794982F802D822BB8
:102E6000EA81FB81808302C082E0898389810F909F
:102E70000F900F900F900F90CF91DF910895DF93F7
:102E8000CF9300D000D00F92CDB7DEB79B838A835B
:102E90007D836C8319828A819B81009769F08A8186
:102EA0009B8190937300809372008C819D8190939D
:102EB00075008093740002C082E0898389810F903D
:102EC0000F900F900F900F90CF91DF9108951F9268
:102ED0000F920FB60F9211242F933F934F935F934E
:102EE0006F937F938F939F93AF93BF93EF93FF93D2
:102EF000DF93CF93CDB7DEB78091720090917300CE
:102F0000009749F0E0917200F09173008091740095
:102F1000909175000995CF91DF91FF91EF91BF914D
:102F2000AF919F918F917F916F915F914F913F9161
:102F30002F910F900FBE0F901F901895DF93CF9396
:102F400000D0CDB7DEB79A83898389819A810E94A8
:102F50007B160F900F90CF91DF910895DF93CF9361
:102F600000D0CDB7DEB71A82198280E060E00E94FF
:102F70007A1182E06FEF0E947A1183E062E040E014
:102F80000E949A0480E690E00E946F0080E069E56C
:102F90000E94E00180E00E940F030E94C21280E0C4
:102FA0000E947E1382E00E9456150E9403140E9424
:102FB0003C148EE997E19E012F5F3F4FB9010E94BB
:102FC0003F170E9429140E94490089819A81982FF5
:0E2FD00082E0692F0E94C711F8CFF894FFCF5E
:062FDE000A0C0A590A3832
:00000001FF
